{
  "contracts/NeemOSCapitalV2.sol": {
    "NeemOSCapitalV2": {
      "abi": [
        {
          "inputs": [
            {
              "internalType": "string",
              "name": "_assetName",
              "type": "string"
            },
            {
              "internalType": "string",
              "name": "_assetCategory",
              "type": "string"
            },
            {
              "internalType": "address",
              "name": "_priceFeed",
              "type": "address"
            },
            {
              "internalType": "address",
              "name": "_stablecoin",
              "type": "address"
            }
          ],
          "stateMutability": "nonpayable",
          "type": "constructor"
        },
        {
          "inputs": [],
          "name": "AccessControlBadConfirmation",
          "type": "error"
        },
        {
          "inputs": [
            {
              "internalType": "address",
              "name": "account",
              "type": "address"
            },
            {
              "internalType": "bytes32",
              "name": "neededRole",
              "type": "bytes32"
            }
          ],
          "name": "AccessControlUnauthorizedAccount",
          "type": "error"
        },
        {
          "inputs": [
            {
              "internalType": "address",
              "name": "spender",
              "type": "address"
            },
            {
              "internalType": "uint256",
              "name": "allowance",
              "type": "uint256"
            },
            {
              "internalType": "uint256",
              "name": "needed",
              "type": "uint256"
            }
          ],
          "name": "ERC20InsufficientAllowance",
          "type": "error"
        },
        {
          "inputs": [
            {
              "internalType": "address",
              "name": "sender",
              "type": "address"
            },
            {
              "internalType": "uint256",
              "name": "balance",
              "type": "uint256"
            },
            {
              "internalType": "uint256",
              "name": "needed",
              "type": "uint256"
            }
          ],
          "name": "ERC20InsufficientBalance",
          "type": "error"
        },
        {
          "inputs": [
            {
              "internalType": "address",
              "name": "approver",
              "type": "address"
            }
          ],
          "name": "ERC20InvalidApprover",
          "type": "error"
        },
        {
          "inputs": [
            {
              "internalType": "address",
              "name": "receiver",
              "type": "address"
            }
          ],
          "name": "ERC20InvalidReceiver",
          "type": "error"
        },
        {
          "inputs": [
            {
              "internalType": "address",
              "name": "sender",
              "type": "address"
            }
          ],
          "name": "ERC20InvalidSender",
          "type": "error"
        },
        {
          "inputs": [
            {
              "internalType": "address",
              "name": "spender",
              "type": "address"
            }
          ],
          "name": "ERC20InvalidSpender",
          "type": "error"
        },
        {
          "inputs": [
            {
              "internalType": "address",
              "name": "owner",
              "type": "address"
            }
          ],
          "name": "OwnableInvalidOwner",
          "type": "error"
        },
        {
          "inputs": [
            {
              "internalType": "address",
              "name": "account",
              "type": "address"
            }
          ],
          "name": "OwnableUnauthorizedAccount",
          "type": "error"
        },
        {
          "anonymous": false,
          "inputs": [
            {
              "indexed": true,
              "internalType": "address",
              "name": "owner",
              "type": "address"
            },
            {
              "indexed": true,
              "internalType": "address",
              "name": "spender",
              "type": "address"
            },
            {
              "indexed": false,
              "internalType": "uint256",
              "name": "value",
              "type": "uint256"
            }
          ],
          "name": "Approval",
          "type": "event"
        },
        {
          "anonymous": false,
          "inputs": [
            {
              "indexed": false,
              "internalType": "uint256",
              "name": "newValuation",
              "type": "uint256"
            },
            {
              "indexed": false,
              "internalType": "uint256",
              "name": "timestamp",
              "type": "uint256"
            }
          ],
          "name": "AssetValuationUpdated",
          "type": "event"
        },
        {
          "anonymous": false,
          "inputs": [
            {
              "indexed": true,
              "internalType": "uint256",
              "name": "timestamp",
              "type": "uint256"
            },
            {
              "indexed": false,
              "internalType": "uint256",
              "name": "totalAmount",
              "type": "uint256"
            },
            {
              "indexed": false,
              "internalType": "uint256",
              "name": "priceUsed",
              "type": "uint256"
            },
            {
              "indexed": false,
              "internalType": "uint256",
              "name": "dividendPerShare",
              "type": "uint256"
            }
          ],
          "name": "DividendDistributed",
          "type": "event"
        },
        {
          "anonymous": false,
          "inputs": [
            {
              "indexed": true,
              "internalType": "address",
              "name": "investor",
              "type": "address"
            },
            {
              "indexed": false,
              "internalType": "uint256",
              "name": "amount",
              "type": "uint256"
            }
          ],
          "name": "DividendWithdrawn",
          "type": "event"
        },
        {
          "anonymous": false,
          "inputs": [
            {
              "indexed": true,
              "internalType": "address",
              "name": "previousOwner",
              "type": "address"
            },
            {
              "indexed": true,
              "internalType": "address",
              "name": "newOwner",
              "type": "address"
            }
          ],
          "name": "OwnershipTransferred",
          "type": "event"
        },
        {
          "anonymous": false,
          "inputs": [
            {
              "indexed": true,
              "internalType": "bytes32",
              "name": "role",
              "type": "bytes32"
            },
            {
              "indexed": true,
              "internalType": "bytes32",
              "name": "previousAdminRole",
              "type": "bytes32"
            },
            {
              "indexed": true,
              "internalType": "bytes32",
              "name": "newAdminRole",
              "type": "bytes32"
            }
          ],
          "name": "RoleAdminChanged",
          "type": "event"
        },
        {
          "anonymous": false,
          "inputs": [
            {
              "indexed": true,
              "internalType": "bytes32",
              "name": "role",
              "type": "bytes32"
            },
            {
              "indexed": true,
              "internalType": "address",
              "name": "account",
              "type": "address"
            },
            {
              "indexed": true,
              "internalType": "address",
              "name": "sender",
              "type": "address"
            }
          ],
          "name": "RoleGranted",
          "type": "event"
        },
        {
          "anonymous": false,
          "inputs": [
            {
              "indexed": true,
              "internalType": "bytes32",
              "name": "role",
              "type": "bytes32"
            },
            {
              "indexed": true,
              "internalType": "address",
              "name": "account",
              "type": "address"
            },
            {
              "indexed": true,
              "internalType": "address",
              "name": "sender",
              "type": "address"
            }
          ],
          "name": "RoleRevoked",
          "type": "event"
        },
        {
          "anonymous": false,
          "inputs": [
            {
              "indexed": true,
              "internalType": "address",
              "name": "user",
              "type": "address"
            },
            {
              "indexed": false,
              "internalType": "uint256",
              "name": "amount",
              "type": "uint256"
            }
          ],
          "name": "Staked",
          "type": "event"
        },
        {
          "anonymous": false,
          "inputs": [
            {
              "indexed": true,
              "internalType": "address",
              "name": "user",
              "type": "address"
            },
            {
              "indexed": false,
              "internalType": "uint256",
              "name": "reward",
              "type": "uint256"
            }
          ],
          "name": "StakingRewardClaimed",
          "type": "event"
        },
        {
          "anonymous": false,
          "inputs": [
            {
              "indexed": true,
              "internalType": "address",
              "name": "from",
              "type": "address"
            },
            {
              "indexed": true,
              "internalType": "address",
              "name": "to",
              "type": "address"
            },
            {
              "indexed": false,
              "internalType": "uint256",
              "name": "value",
              "type": "uint256"
            }
          ],
          "name": "Transfer",
          "type": "event"
        },
        {
          "anonymous": false,
          "inputs": [
            {
              "indexed": true,
              "internalType": "address",
              "name": "user",
              "type": "address"
            },
            {
              "indexed": false,
              "internalType": "uint256",
              "name": "amount",
              "type": "uint256"
            }
          ],
          "name": "Unstaked",
          "type": "event"
        },
        {
          "anonymous": false,
          "inputs": [
            {
              "indexed": true,
              "internalType": "address",
              "name": "beneficiary",
              "type": "address"
            },
            {
              "indexed": false,
              "internalType": "uint256",
              "name": "amount",
              "type": "uint256"
            }
          ],
          "name": "VestingClaimed",
          "type": "event"
        },
        {
          "anonymous": false,
          "inputs": [
            {
              "indexed": true,
              "internalType": "address",
              "name": "beneficiary",
              "type": "address"
            },
            {
              "indexed": false,
              "internalType": "uint256",
              "name": "totalAmount",
              "type": "uint256"
            },
            {
              "indexed": false,
              "internalType": "uint256",
              "name": "duration",
              "type": "uint256"
            }
          ],
          "name": "VestingScheduleCreated",
          "type": "event"
        },
        {
          "inputs": [],
          "name": "DEFAULT_ADMIN_ROLE",
          "outputs": [
            {
              "internalType": "bytes32",
              "name": "",
              "type": "bytes32"
            }
          ],
          "stateMutability": "view",
          "type": "function"
        },
        {
          "inputs": [],
          "name": "VESTING_MANAGER_ROLE",
          "outputs": [
            {
              "internalType": "bytes32",
              "name": "",
              "type": "bytes32"
            }
          ],
          "stateMutability": "view",
          "type": "function"
        },
        {
          "inputs": [],
          "name": "YIELD_MANAGER_ROLE",
          "outputs": [
            {
              "internalType": "bytes32",
              "name": "",
              "type": "bytes32"
            }
          ],
          "stateMutability": "view",
          "type": "function"
        },
        {
          "inputs": [
            {
              "internalType": "address",
              "name": "owner",
              "type": "address"
            },
            {
              "internalType": "address",
              "name": "spender",
              "type": "address"
            }
          ],
          "name": "allowance",
          "outputs": [
            {
              "internalType": "uint256",
              "name": "",
              "type": "uint256"
            }
          ],
          "stateMutability": "view",
          "type": "function"
        },
        {
          "inputs": [
            {
              "internalType": "address",
              "name": "spender",
              "type": "address"
            },
            {
              "internalType": "uint256",
              "name": "value",
              "type": "uint256"
            }
          ],
          "name": "approve",
          "outputs": [
            {
              "internalType": "bool",
              "name": "",
              "type": "bool"
            }
          ],
          "stateMutability": "nonpayable",
          "type": "function"
        },
        {
          "inputs": [],
          "name": "assetCategory",
          "outputs": [
            {
              "internalType": "string",
              "name": "",
              "type": "string"
            }
          ],
          "stateMutability": "view",
          "type": "function"
        },
        {
          "inputs": [],
          "name": "assetName",
          "outputs": [
            {
              "internalType": "string",
              "name": "",
              "type": "string"
            }
          ],
          "stateMutability": "view",
          "type": "function"
        },
        {
          "inputs": [],
          "name": "assetValuation",
          "outputs": [
            {
              "internalType": "uint256",
              "name": "",
              "type": "uint256"
            }
          ],
          "stateMutability": "view",
          "type": "function"
        },
        {
          "inputs": [
            {
              "internalType": "address",
              "name": "account",
              "type": "address"
            }
          ],
          "name": "balanceOf",
          "outputs": [
            {
              "internalType": "uint256",
              "name": "",
              "type": "uint256"
            }
          ],
          "stateMutability": "view",
          "type": "function"
        },
        {
          "inputs": [],
          "name": "claimStakingReward",
          "outputs": [],
          "stateMutability": "nonpayable",
          "type": "function"
        },
        {
          "inputs": [],
          "name": "claimVestedTokens",
          "outputs": [],
          "stateMutability": "nonpayable",
          "type": "function"
        },
        {
          "inputs": [
            {
              "internalType": "address",
              "name": "beneficiary",
              "type": "address"
            },
            {
              "internalType": "uint256",
              "name": "totalAmount",
              "type": "uint256"
            },
            {
              "internalType": "uint256",
              "name": "durationSeconds",
              "type": "uint256"
            },
            {
              "internalType": "bool",
              "name": "revocable",
              "type": "bool"
            }
          ],
          "name": "createVestingSchedule",
          "outputs": [],
          "stateMutability": "nonpayable",
          "type": "function"
        },
        {
          "inputs": [],
          "name": "decimals",
          "outputs": [
            {
              "internalType": "uint8",
              "name": "",
              "type": "uint8"
            }
          ],
          "stateMutability": "view",
          "type": "function"
        },
        {
          "inputs": [
            {
              "internalType": "uint256",
              "name": "usdcAmount",
              "type": "uint256"
            }
          ],
          "name": "distributeDividends",
          "outputs": [],
          "stateMutability": "nonpayable",
          "type": "function"
        },
        {
          "inputs": [
            {
              "internalType": "uint256",
              "name": "",
              "type": "uint256"
            }
          ],
          "name": "dividendHistory",
          "outputs": [
            {
              "internalType": "uint256",
              "name": "timestamp",
              "type": "uint256"
            },
            {
              "internalType": "uint256",
              "name": "amount",
              "type": "uint256"
            },
            {
              "internalType": "uint256",
              "name": "usdPrice",
              "type": "uint256"
            }
          ],
          "stateMutability": "view",
          "type": "function"
        },
        {
          "inputs": [],
          "name": "dividendPerShare",
          "outputs": [
            {
              "internalType": "uint256",
              "name": "",
              "type": "uint256"
            }
          ],
          "stateMutability": "view",
          "type": "function"
        },
        {
          "inputs": [
            {
              "internalType": "address",
              "name": "token",
              "type": "address"
            }
          ],
          "name": "emergencyWithdraw",
          "outputs": [],
          "stateMutability": "nonpayable",
          "type": "function"
        },
        {
          "inputs": [],
          "name": "getDividendHistory",
          "outputs": [
            {
              "components": [
                {
                  "internalType": "uint256",
                  "name": "timestamp",
                  "type": "uint256"
                },
                {
                  "internalType": "uint256",
                  "name": "amount",
                  "type": "uint256"
                },
                {
                  "internalType": "uint256",
                  "name": "usdPrice",
                  "type": "uint256"
                }
              ],
              "internalType": "struct NeemOSCapitalV2.DividendRecord[]",
              "name": "",
              "type": "tuple[]"
            }
          ],
          "stateMutability": "view",
          "type": "function"
        },
        {
          "inputs": [],
          "name": "getDividendHistoryLength",
          "outputs": [
            {
              "internalType": "uint256",
              "name": "",
              "type": "uint256"
            }
          ],
          "stateMutability": "view",
          "type": "function"
        },
        {
          "inputs": [],
          "name": "getLatestPrice",
          "outputs": [
            {
              "internalType": "uint256",
              "name": "",
              "type": "uint256"
            }
          ],
          "stateMutability": "view",
          "type": "function"
        },
        {
          "inputs": [
            {
              "internalType": "bytes32",
              "name": "role",
              "type": "bytes32"
            }
          ],
          "name": "getRoleAdmin",
          "outputs": [
            {
              "internalType": "bytes32",
              "name": "",
              "type": "bytes32"
            }
          ],
          "stateMutability": "view",
          "type": "function"
        },
        {
          "inputs": [
            {
              "internalType": "address",
              "name": "beneficiary",
              "type": "address"
            }
          ],
          "name": "getVestedAmount",
          "outputs": [
            {
              "internalType": "uint256",
              "name": "",
              "type": "uint256"
            }
          ],
          "stateMutability": "view",
          "type": "function"
        },
        {
          "inputs": [
            {
              "internalType": "bytes32",
              "name": "role",
              "type": "bytes32"
            },
            {
              "internalType": "address",
              "name": "account",
              "type": "address"
            }
          ],
          "name": "grantRole",
          "outputs": [],
          "stateMutability": "nonpayable",
          "type": "function"
        },
        {
          "inputs": [
            {
              "internalType": "bytes32",
              "name": "role",
              "type": "bytes32"
            },
            {
              "internalType": "address",
              "name": "account",
              "type": "address"
            }
          ],
          "name": "hasRole",
          "outputs": [
            {
              "internalType": "bool",
              "name": "",
              "type": "bool"
            }
          ],
          "stateMutability": "view",
          "type": "function"
        },
        {
          "inputs": [],
          "name": "invest",
          "outputs": [],
          "stateMutability": "payable",
          "type": "function"
        },
        {
          "inputs": [],
          "name": "lastValuationUpdate",
          "outputs": [
            {
              "internalType": "uint256",
              "name": "",
              "type": "uint256"
            }
          ],
          "stateMutability": "view",
          "type": "function"
        },
        {
          "inputs": [],
          "name": "name",
          "outputs": [
            {
              "internalType": "string",
              "name": "",
              "type": "string"
            }
          ],
          "stateMutability": "view",
          "type": "function"
        },
        {
          "inputs": [],
          "name": "owner",
          "outputs": [
            {
              "internalType": "address",
              "name": "",
              "type": "address"
            }
          ],
          "stateMutability": "view",
          "type": "function"
        },
        {
          "inputs": [
            {
              "internalType": "address",
              "name": "investor",
              "type": "address"
            }
          ],
          "name": "pendingDividends",
          "outputs": [
            {
              "internalType": "uint256",
              "name": "",
              "type": "uint256"
            }
          ],
          "stateMutability": "view",
          "type": "function"
        },
        {
          "inputs": [],
          "name": "priceFeed",
          "outputs": [
            {
              "internalType": "contract AggregatorV3Interface",
              "name": "",
              "type": "address"
            }
          ],
          "stateMutability": "view",
          "type": "function"
        },
        {
          "inputs": [],
          "name": "renounceOwnership",
          "outputs": [],
          "stateMutability": "nonpayable",
          "type": "function"
        },
        {
          "inputs": [
            {
              "internalType": "bytes32",
              "name": "role",
              "type": "bytes32"
            },
            {
              "internalType": "address",
              "name": "callerConfirmation",
              "type": "address"
            }
          ],
          "name": "renounceRole",
          "outputs": [],
          "stateMutability": "nonpayable",
          "type": "function"
        },
        {
          "inputs": [
            {
              "internalType": "bytes32",
              "name": "role",
              "type": "bytes32"
            },
            {
              "internalType": "address",
              "name": "account",
              "type": "address"
            }
          ],
          "name": "revokeRole",
          "outputs": [],
          "stateMutability": "nonpayable",
          "type": "function"
        },
        {
          "inputs": [],
          "name": "stablecoin",
          "outputs": [
            {
              "internalType": "contract IERC20",
              "name": "",
              "type": "address"
            }
          ],
          "stateMutability": "view",
          "type": "function"
        },
        {
          "inputs": [
            {
              "internalType": "uint256",
              "name": "amount",
              "type": "uint256"
            }
          ],
          "name": "stake",
          "outputs": [],
          "stateMutability": "nonpayable",
          "type": "function"
        },
        {
          "inputs": [],
          "name": "stakingAPY",
          "outputs": [
            {
              "internalType": "uint256",
              "name": "",
              "type": "uint256"
            }
          ],
          "stateMutability": "view",
          "type": "function"
        },
        {
          "inputs": [
            {
              "internalType": "address",
              "name": "",
              "type": "address"
            }
          ],
          "name": "stakingInfo",
          "outputs": [
            {
              "internalType": "uint256",
              "name": "stakedAmount",
              "type": "uint256"
            },
            {
              "internalType": "uint256",
              "name": "stakingStartTime",
              "type": "uint256"
            },
            {
              "internalType": "uint256",
              "name": "lastRewardTime",
              "type": "uint256"
            },
            {
              "internalType": "uint256",
              "name": "rewardDebtPerShare",
              "type": "uint256"
            }
          ],
          "stateMutability": "view",
          "type": "function"
        },
        {
          "inputs": [],
          "name": "stakingRewardPerShare",
          "outputs": [
            {
              "internalType": "uint256",
              "name": "",
              "type": "uint256"
            }
          ],
          "stateMutability": "view",
          "type": "function"
        },
        {
          "inputs": [
            {
              "internalType": "bytes4",
              "name": "interfaceId",
              "type": "bytes4"
            }
          ],
          "name": "supportsInterface",
          "outputs": [
            {
              "internalType": "bool",
              "name": "",
              "type": "bool"
            }
          ],
          "stateMutability": "view",
          "type": "function"
        },
        {
          "inputs": [],
          "name": "symbol",
          "outputs": [
            {
              "internalType": "string",
              "name": "",
              "type": "string"
            }
          ],
          "stateMutability": "view",
          "type": "function"
        },
        {
          "inputs": [],
          "name": "totalInvestment",
          "outputs": [
            {
              "internalType": "uint256",
              "name": "",
              "type": "uint256"
            }
          ],
          "stateMutability": "view",
          "type": "function"
        },
        {
          "inputs": [],
          "name": "totalStaked",
          "outputs": [
            {
              "internalType": "uint256",
              "name": "",
              "type": "uint256"
            }
          ],
          "stateMutability": "view",
          "type": "function"
        },
        {
          "inputs": [],
          "name": "totalSupply",
          "outputs": [
            {
              "internalType": "uint256",
              "name": "",
              "type": "uint256"
            }
          ],
          "stateMutability": "view",
          "type": "function"
        },
        {
          "inputs": [
            {
              "internalType": "address",
              "name": "to",
              "type": "address"
            },
            {
              "internalType": "uint256",
              "name": "value",
              "type": "uint256"
            }
          ],
          "name": "transfer",
          "outputs": [
            {
              "internalType": "bool",
              "name": "",
              "type": "bool"
            }
          ],
          "stateMutability": "nonpayable",
          "type": "function"
        },
        {
          "inputs": [
            {
              "internalType": "address",
              "name": "from",
              "type": "address"
            },
            {
              "internalType": "address",
              "name": "to",
              "type": "address"
            },
            {
              "internalType": "uint256",
              "name": "value",
              "type": "uint256"
            }
          ],
          "name": "transferFrom",
          "outputs": [
            {
              "internalType": "bool",
              "name": "",
              "type": "bool"
            }
          ],
          "stateMutability": "nonpayable",
          "type": "function"
        },
        {
          "inputs": [
            {
              "internalType": "address",
              "name": "newOwner",
              "type": "address"
            }
          ],
          "name": "transferOwnership",
          "outputs": [],
          "stateMutability": "nonpayable",
          "type": "function"
        },
        {
          "inputs": [
            {
              "internalType": "uint256",
              "name": "amount",
              "type": "uint256"
            }
          ],
          "name": "unstake",
          "outputs": [],
          "stateMutability": "nonpayable",
          "type": "function"
        },
        {
          "inputs": [
            {
              "internalType": "uint256",
              "name": "newValuation",
              "type": "uint256"
            }
          ],
          "name": "updateAssetValuation",
          "outputs": [],
          "stateMutability": "nonpayable",
          "type": "function"
        },
        {
          "inputs": [
            {
              "internalType": "address",
              "name": "",
              "type": "address"
            }
          ],
          "name": "vestingSchedules",
          "outputs": [
            {
              "internalType": "uint256",
              "name": "totalAmount",
              "type": "uint256"
            },
            {
              "internalType": "uint256",
              "name": "startTime",
              "type": "uint256"
            },
            {
              "internalType": "uint256",
              "name": "duration",
              "type": "uint256"
            },
            {
              "internalType": "uint256",
              "name": "claimed",
              "type": "uint256"
            },
            {
              "internalType": "bool",
              "name": "revocable",
              "type": "bool"
            }
          ],
          "stateMutability": "view",
          "type": "function"
        },
        {
          "inputs": [],
          "name": "withdrawDividends",
          "outputs": [],
          "stateMutability": "nonpayable",
          "type": "function"
        },
        {
          "inputs": [
            {
              "internalType": "address",
              "name": "",
              "type": "address"
            }
          ],
          "name": "withdrawnDividends",
          "outputs": [
            {
              "internalType": "uint256",
              "name": "",
              "type": "uint256"
            }
          ],
          "stateMutability": "view",
          "type": "function"
        }
      ],
      "evm": {
        "bytecode": {
          "linkReferences": {},
          "object": "60c06040526103e8600c55348015610015575f80fd5b50604051612ab3380380612ab3833981016040819052610034916103f2565b336040518060400160405280601481526020017f4e65656d4f53204361706974616c2053686172650000000000000000000000008152506040518060400160405280600481526020016304e4341560e41b815250816003908161009791906104f5565b5060046100a482826104f5565b5050506001600160a01b0381166100d557604051631e4fbdf760e01b81525f60048201526024015b60405180910390fd5b6100de8161023d565b505f84511161012f5760405162461bcd60e51b815260206004820152601360248201527f4173736574206e616d652072657175697265640000000000000000000000000060448201526064016100cc565b5f83511161017f5760405162461bcd60e51b815260206004820152601760248201527f41737365742063617465676f727920726571756972656400000000000000000060448201526064016100cc565b600e61018b85826104f5565b50600f61019884826104f5565b506001600160a01b038216156101b6576001600160a01b0382166080525b6001600160a01b038116156101d3576001600160a01b03811660a0525b6101dd5f3361028e565b506102087f470f4f1717679395b6a9e0700797bfeeaa970f1643e72f5684d687c0be10fe273361028e565b506102337fd810f479110c9771ec744414e571d78468b4e92a20f345df2ffbdc5f927a182e3361028e565b50505050506105b4565b600580546001600160a01b038381166001600160a01b0319831681179093556040519116919082907f8be0079c531659141344cd1fd0a4f28419497f9722a3daafe3b4186f6b6457e0905f90a35050565b5f8281526006602090815260408083206001600160a01b038516845290915281205460ff16610332575f8381526006602090815260408083206001600160a01b03861684529091529020805460ff191660011790556102ea3390565b6001600160a01b0316826001600160a01b0316847f2f8788117e7eff1d82e926ec794901d17c78024a50270940304540a733656f0d60405160405180910390a4506001610335565b505f5b92915050565b634e487b7160e01b5f52604160045260245ffd5b5f82601f83011261035e575f80fd5b81516001600160401b03808211156103785761037861033b565b604051601f8301601f19908116603f011681019082821181831017156103a0576103a061033b565b816040528381528660208588010111156103b8575f80fd5b8360208701602083015e5f602085830101528094505050505092915050565b80516001600160a01b03811681146103ed575f80fd5b919050565b5f805f8060808587031215610405575f80fd5b84516001600160401b038082111561041b575f80fd5b6104278883890161034f565b9550602087015191508082111561043c575f80fd5b506104498782880161034f565b935050610458604086016103d7565b9150610466606086016103d7565b905092959194509250565b600181811c9082168061048557607f821691505b6020821081036104a357634e487b7160e01b5f52602260045260245ffd5b50919050565b601f8211156104f057805f5260205f20601f840160051c810160208510156104ce5750805b601f840160051c820191505b818110156104ed575f81556001016104da565b50505b505050565b81516001600160401b0381111561050e5761050e61033b565b6105228161051c8454610471565b846104a9565b602080601f831160018114610555575f841561053e5750858301515b5f19600386901b1c1916600185901b1785556105ac565b5f85815260208120601f198616915b8281101561058357888601518255948401946001909101908401610564565b50858210156105a057878501515f19600388901b60f8161c191681555b505060018460011b0185555b505050505050565b60805160a0516124c26105f15f395f818161089c01528181610d7001528181610f2c015261114d01525f818161058101526112f501526124c25ff3fe6080604052600436106102d9575f3560e01c8063817b1cd211610189578063c9230c5d116100d8578063e8b5e51f11610092578063f2fde38b1161006d578063f2fde38b146108df578063fbadf195146108fe578063fdb20ccb1461091d578063fe9e964014610992575f80fd5b8063e8b5e51f14610883578063e9cbd8221461088b578063e9ce131d146108be575f80fd5b8063c9230c5d146107ae578063d547741f146107c2578063d5a73fdd146107e1578063dd62ed3e14610800578063de3aaf6114610844578063e74f3fbb1461086f575f80fd5b80639dee937611610143578063a9059cbb1161011e578063a9059cbb14610729578063afc695ce14610748578063b8664dca1461075c578063c79264581461078f575f80fd5b80639dee9376146106e2578063a217fddf146106f7578063a694fc3a1461070a575f80fd5b8063817b1cd2146106095780638da5cb5b1461061e5780638e15f4731461063b57806391d148541461064f57806394eecb501461066e57806395d89b41146106ce575f80fd5b80632e17de7811610245578063406dd96b116101ff578063715018a6116101da578063715018a61461055c578063741bef1a146105705780637783a4a8146105bb5780637e9cae0e146105cf575f80fd5b8063406dd96b146104f45780636ff1c9bc1461050957806370a0823114610528575f80fd5b80632e17de78146104495780632e92abdd146104685780632f2ff15d1461047c578063313ce5671461049b5780633243c791146104b657806336568abe146104d5575f80fd5b806318160ddd1161029657806318160ddd146103aa5780631c763596146103be57806323b872dd146103d3578063248a9ca3146103f2578063260bbb4a146104205780632c26d8ee14610435575f80fd5b806301ffc9a7146102dd578063034835361461031157806306fdde0314610332578063095ea7b31461035357806310ea13df146103725780631531b62a14610395575b5f80fd5b3480156102e8575f80fd5b506102fc6102f7366004612127565b6109c5565b60405190151581526020015b60405180910390f35b34801561031c575f80fd5b5061033061032b36600461214e565b6109d5565b005b34801561033d575f80fd5b50610346610a90565b6040516103089190612165565b34801561035e575f80fd5b506102fc61036d3660046121b5565b610b20565b34801561037d575f80fd5b5061038760105481565b604051908152602001610308565b3480156103a0575f80fd5b50610387600c5481565b3480156103b5575f80fd5b50600254610387565b3480156103c9575f80fd5b5061038760075481565b3480156103de575f80fd5b506102fc6103ed3660046121dd565b610b37565b3480156103fd575f80fd5b5061038761040c36600461214e565b5f9081526006602052604090206001015490565b34801561042b575f80fd5b5061038760125481565b348015610440575f80fd5b50610346610b5a565b348015610454575f80fd5b5061033061046336600461214e565b610be6565b348015610473575f80fd5b50610330610ce2565b348015610487575f80fd5b50610330610496366004612216565b610e4a565b3480156104a6575f80fd5b5060405160128152602001610308565b3480156104c1575f80fd5b506103306104d036600461214e565b610e74565b3480156104e0575f80fd5b506103306104ef366004612216565b61110b565b3480156104ff575f80fd5b5061038760115481565b348015610514575f80fd5b50610330610523366004612240565b611143565b348015610533575f80fd5b50610387610542366004612240565b6001600160a01b03165f9081526020819052604090205490565b348015610567575f80fd5b506103306112ac565b34801561057b575f80fd5b506105a37f000000000000000000000000000000000000000000000000000000000000000081565b6040516001600160a01b039091168152602001610308565b3480156105c6575f80fd5b50601354610387565b3480156105da575f80fd5b506105ee6105e936600461214e565b6112bf565b60408051938452602084019290925290820152606001610308565b348015610614575f80fd5b50610387600a5481565b348015610629575f80fd5b506005546001600160a01b03166105a3565b348015610646575f80fd5b506103876112f0565b34801561065a575f80fd5b506102fc610669366004612216565b61141e565b348015610679575f80fd5b506106ae610688366004612240565b60096020525f908152604090208054600182015460028301546003909301549192909184565b604080519485526020850193909352918301526060820152608001610308565b3480156106d9575f80fd5b50610346611448565b3480156106ed575f80fd5b50610387600b5481565b348015610702575f80fd5b506103875f81565b348015610715575f80fd5b5061033061072436600461214e565b611457565b348015610734575f80fd5b506102fc6107433660046121b5565b611583565b348015610753575f80fd5b50610330611590565b348015610767575f80fd5b506103877fd810f479110c9771ec744414e571d78468b4e92a20f345df2ffbdc5f927a182e81565b34801561079a575f80fd5b506103876107a9366004612240565b611599565b3480156107b9575f80fd5b50610346611604565b3480156107cd575f80fd5b506103306107dc366004612216565b611611565b3480156107ec575f80fd5b506103876107fb366004612240565b611635565b34801561080b575f80fd5b5061038761081a366004612259565b6001600160a01b039182165f90815260016020908152604080832093909416825291909152205490565b34801561084f575f80fd5b5061038761085e366004612240565b60086020525f908152604090205481565b34801561087a575f80fd5b5061033061170c565b6103306117c2565b348015610896575f80fd5b506105a37f000000000000000000000000000000000000000000000000000000000000000081565b3480156108c9575f80fd5b506108d2611911565b6040516103089190612281565b3480156108ea575f80fd5b506103306108f9366004612240565b61198a565b348015610909575f80fd5b506103306109183660046122e6565b6119c7565b348015610928575f80fd5b50610968610937366004612240565b600d6020525f9081526040902080546001820154600283015460038401546004909401549293919290919060ff1685565b6040805195865260208601949094529284019190915260608301521515608082015260a001610308565b34801561099d575f80fd5b506103877f470f4f1717679395b6a9e0700797bfeeaa970f1643e72f5684d687c0be10fe2781565b5f6109cf82611b64565b92915050565b7f470f4f1717679395b6a9e0700797bfeeaa970f1643e72f5684d687c0be10fe276109ff81611b98565b5f8211610a475760405162461bcd60e51b815260206004820152601160248201527024b73b30b634b2103b30b63ab0ba34b7b760791b60448201526064015b60405180910390fd5b60118290554260128190556040805184815260208101929092527f1a2adb2c5c320cf62b125006275b281ff25f153039ad22608c743d266317e8e1910160405180910390a15050565b606060038054610a9f9061232b565b80601f0160208091040260200160405190810160405280929190818152602001828054610acb9061232b565b8015610b165780601f10610aed57610100808354040283529160200191610b16565b820191905f5260205f20905b815481529060010190602001808311610af957829003601f168201915b5050505050905090565b5f33610b2d818585611ba2565b5060019392505050565b5f33610b44858285611baf565b610b4f858585611c25565b506001949350505050565b600f8054610b679061232b565b80601f0160208091040260200160405190810160405280929190818152602001828054610b939061232b565b8015610bde5780601f10610bb557610100808354040283529160200191610bde565b820191905f5260205f20905b815481529060010190602001808311610bc157829003601f168201915b505050505081565b5f8111610c055760405162461bcd60e51b8152600401610a3e9061235d565b335f90815260096020526040902054811115610c595760405162461bcd60e51b8152602060048201526013602482015272125b9cdd59999a58da595b9d081cdd185ad959606a1b6044820152606401610a3e565b610c6233611c82565b335f9081526009602052604081208054839290610c80908490612399565b9250508190555080600a5f828254610c989190612399565b90915550610ca99050303383611c25565b60405181815233907f0f5bb82176feb1b5e747e28471aa92156a04d9f3ab9f45f28e2d704232b93f75906020015b60405180910390a250565b5f610cec33611599565b90505f8111610d345760405162461bcd60e51b81526020600482015260146024820152734e6f206469766964656e64732070656e64696e6760601b6044820152606401610a3e565b600754335f818152600860205260409081902092909255905163a9059cbb60e01b81526004810191909152602481018290526001600160a01b037f0000000000000000000000000000000000000000000000000000000000000000169063a9059cbb906044016020604051808303815f875af1158015610db6573d5f803e3d5ffd5b505050506040513d601f19601f82011682018060405250810190610dda91906123ac565b610e185760405162461bcd60e51b815260206004820152600f60248201526e151c985b9cd9995c8819985a5b1959608a1b6044820152606401610a3e565b60405181815233907fee503bee2bb6a87e57bc57db795f98137327401a0e7b7ce42e37926cc1a9ca4d90602001610cd7565b5f82815260066020526040902060010154610e6481611b98565b610e6e8383611d48565b50505050565b7f470f4f1717679395b6a9e0700797bfeeaa970f1643e72f5684d687c0be10fe27610e9e81611b98565b5f610ea860025490565b90505f8111610eeb5760405162461bcd60e51b815260206004820152600f60248201526e4e6f207368617265686f6c6465727360881b6044820152606401610a3e565b5f8311610f0a5760405162461bcd60e51b8152600401610a3e9061235d565b6040516323b872dd60e01b8152336004820152306024820152604481018490527f00000000000000000000000000000000000000000000000000000000000000006001600160a01b0316906323b872dd906064016020604051808303815f875af1158015610f7a573d5f803e3d5ffd5b505050506040513d601f19601f82011682018060405250810190610f9e91906123ac565b610fe15760405162461bcd60e51b81526020600482015260146024820152731554d110c81d1c985b9cd9995c8819985a5b195960621b6044820152606401610a3e565b5f610fea6112f0565b905081610fff85670de0b6b3a76400006123c7565b61100991906123de565b60075f82825461101991906123fd565b90915550506040805160608082018352428083526020808401898152848601878152601380546001810182555f9190915295517f66de8ffda797e3de9c05e8fc57b3bf0ec28a930d40b0d285d93c06501cf6a09060039097029687015590517f66de8ffda797e3de9c05e8fc57b3bf0ec28a930d40b0d285d93c06501cf6a091860155517f66de8ffda797e3de9c05e8fc57b3bf0ec28a930d40b0d285d93c06501cf6a092909401939093556007548451898152938401869052938301939093527fc6570a09263e2dbe9b55b3b62e5c111af20c6cfb770f70c0aab4660ef56cc337910160405180910390a250505050565b6001600160a01b03811633146111345760405163334bd91960e11b815260040160405180910390fd5b61113e8282611dd9565b505050565b61114b611e44565b7f00000000000000000000000000000000000000000000000000000000000000006001600160a01b0316816001600160a01b0316036111cc5760405162461bcd60e51b815260206004820152601a60248201527f43616e6e6f7420776974686472617720737461626c65636f696e0000000000006044820152606401610a3e565b6040516370a0823160e01b81523060048201526001600160a01b0382169063a9059cbb90339083906370a0823190602401602060405180830381865afa158015611218573d5f803e3d5ffd5b505050506040513d601f19601f8201168201806040525081019061123c9190612410565b6040516001600160e01b031960e085901b1681526001600160a01b03909216600483015260248201526044016020604051808303815f875af1158015611284573d5f803e3d5ffd5b505050506040513d601f19601f820116820180604052508101906112a891906123ac565b5050565b6112b4611e44565b6112bd5f611e71565b565b601381815481106112ce575f80fd5b5f91825260209091206003909102018054600182015460029092015490925083565b5f805f7f00000000000000000000000000000000000000000000000000000000000000006001600160a01b031663feaf968c6040518163ffffffff1660e01b815260040160a060405180830381865afa15801561134f573d5f803e3d5ffd5b505050506040513d601f19601f820116820180604052508101906113739190612440565b509350509250505f82136113c95760405162461bcd60e51b815260206004820152601960248201527f496e76616c69642070726963652066726f6d206f7261636c65000000000000006044820152606401610a3e565b620151806113d78242612399565b11156114185760405162461bcd60e51b815260206004820152601060248201526f50726963652066656564207374616c6560801b6044820152606401610a3e565b50919050565b5f9182526006602090815260408084206001600160a01b0393909316845291905290205460ff1690565b606060048054610a9f9061232b565b5f81116114765760405162461bcd60e51b8152600401610a3e9061235d565b335f908152602081905260409020548111156114cb5760405162461bcd60e51b8152602060048201526014602482015273496e73756666696369656e742062616c616e636560601b6044820152606401610a3e565b335f90815260096020526040902054156114e8576114e833611c82565b6114f23082611583565b50335f90815260096020526040812080548392906115119084906123fd565b9091555050335f90815260096020526040812042600182018190556002820155600b54600390910155600a805483929061154c9084906123fd565b909155505060405181815233907f9e71bc8eea02a63969f509818f2dafb9254532904319f9dbda79b67bd34a5f3d90602001610cd7565b5f33610b2d818585611c25565b6112bd33611c82565b6001600160a01b0381165f9081526008602052604081205460075482916115bf91612399565b9050670de0b6b3a7640000816115e9856001600160a01b03165f9081526020819052604090205490565b6115f391906123c7565b6115fd91906123de565b9392505050565b600e8054610b679061232b565b5f8281526006602052604090206001015461162b81611b98565b610e6e8383611dd9565b6001600160a01b0381165f908152600d60209081526040808320815160a0810183528154808252600183015494820194909452600282015492810192909252600381015460608301526004015460ff161515608082015290820361169b57505f92915050565b5f8160200151426116ac9190612399565b9050816040015181106116d257606082015182516116ca9190612399565b949350505050565b5f826040015182845f01516116e791906123c7565b6116f191906123de565b90508260600151816117039190612399565b95945050505050565b5f61171633611635565b90505f811161175e5760405162461bcd60e51b8152602060048201526014602482015273139bc81d1bdad95b9cc81d995cdd1959081e595d60621b6044820152606401610a3e565b335f908152600d60205260408120600301805483929061177f9084906123fd565b909155506117909050303383611c25565b60405181815233907f9fe9b7be9d151c7a8b6de49a1312ff27a15096d0d1d12999af85fe4310e0b12590602001610cd7565b5f34116118065760405162461bcd60e51b815260206004820152601260248201527114d95b9908115512081d1bc81a5b9d995cdd60721b6044820152606401610a3e565b5f61180f6112f0565b90505f6305f5e10061182183346123c7565b61182b91906123de565b90505f6011545f0361184f5761184866038d7ea4c68000346123de565b9050611871565b60115461186483670de0b6b3a76400006123c7565b61186e91906123de565b90505b5f81116118b75760405162461bcd60e51b8152602060048201526014602482015273125b9d995cdd1b595b9d081d1bdbc81cdb585b1b60621b6044820152606401610a3e565b6118c13382611ec2565b3460105f8282546118d291906123fd565b909155505060405181815233907f9e71bc8eea02a63969f509818f2dafb9254532904319f9dbda79b67bd34a5f3d9060200160405180910390a2505050565b60606013805480602002602001604051908101604052809291908181526020015f905b82821015611981578382905f5260205f2090600302016040518060600160405290815f82015481526020016001820154815260200160028201548152505081526020019060010190611934565b50505050905090565b611992611e44565b6001600160a01b0381166119bb57604051631e4fbdf760e01b81525f6004820152602401610a3e565b6119c481611e71565b50565b7fd810f479110c9771ec744414e571d78468b4e92a20f345df2ffbdc5f927a182e6119f181611b98565b6001600160a01b038516611a3d5760405162461bcd60e51b8152602060048201526013602482015272496e76616c69642062656e656669636961727960681b6044820152606401610a3e565b5f8411611a5c5760405162461bcd60e51b8152600401610a3e9061235d565b5f8311611a9e5760405162461bcd60e51b815260206004820152601060248201526f24b73b30b634b210323ab930ba34b7b760811b6044820152606401610a3e565b6040805160a0810182528581524260208083019182528284018781525f60608501818152881515608087019081526001600160a01b038d168352600d9094529590209351845591516001840155905160028301559151600382015590516004909101805460ff1916911515919091179055611b193085611ec2565b60408051858152602081018590526001600160a01b038716917f402b9fa52520ce724d8e25ad1521f70484bd3c833f98ed26451d7c9666820203910160405180910390a25050505050565b5f6001600160e01b03198216637965db0b60e01b14806109cf57506301ffc9a760e01b6001600160e01b03198316146109cf565b6119c48133611ef6565b61113e8383836001611f2f565b6001600160a01b038381165f908152600160209081526040808320938616835292905220545f19811015610e6e5781811015611c1757604051637dc7a0d960e11b81526001600160a01b03841660048201526024810182905260448101839052606401610a3e565b610e6e84848484035f611f2f565b6001600160a01b038316611c4e57604051634b637e8f60e11b81525f6004820152602401610a3e565b6001600160a01b038216611c775760405163ec442f0560e01b81525f6004820152602401610a3e565b61113e838383612001565b6001600160a01b0381165f9081526009602052604081208054909103611ca6575050565b5f816002015442611cb79190612399565b90505f64496cebb80082600c54855f0154611cd291906123c7565b611cdc91906123c7565b611ce691906123de565b90508015611d3c57611cf88482611ec2565b836001600160a01b03167f6dd401e61ba732582a5eba3d54ccc3afb3609cd3ac1a166d1d36f75fc0aedcda82604051611d3391815260200190565b60405180910390a25b50504260029091015550565b5f611d53838361141e565b611dd2575f8381526006602090815260408083206001600160a01b03861684529091529020805460ff19166001179055611d8a3390565b6001600160a01b0316826001600160a01b0316847f2f8788117e7eff1d82e926ec794901d17c78024a50270940304540a733656f0d60405160405180910390a45060016109cf565b505f6109cf565b5f611de4838361141e565b15611dd2575f8381526006602090815260408083206001600160a01b0386168085529252808320805460ff1916905551339286917ff6391f5c32d9c69d2a47ea670b442974b53935d1edc7fd64eb21e047a839171b9190a45060016109cf565b6005546001600160a01b031633146112bd5760405163118cdaa760e01b8152336004820152602401610a3e565b600580546001600160a01b038381166001600160a01b0319831681179093556040519116919082907f8be0079c531659141344cd1fd0a4f28419497f9722a3daafe3b4186f6b6457e0905f90a35050565b6001600160a01b038216611eeb5760405163ec442f0560e01b81525f6004820152602401610a3e565b6112a85f8383612001565b611f00828261141e565b6112a85760405163e2517d3f60e01b81526001600160a01b038216600482015260248101839052604401610a3e565b6001600160a01b038416611f585760405163e602df0560e01b81525f6004820152602401610a3e565b6001600160a01b038316611f8157604051634a1406b160e11b81525f6004820152602401610a3e565b6001600160a01b038085165f9081526001602090815260408083209387168352929052208290558015610e6e57826001600160a01b0316846001600160a01b03167f8c5be1e5ebec7d5bd14f71427d1e84f3dd0314c0f7b2291e5b200ac8c7c3b92584604051611ff391815260200190565b60405180910390a350505050565b6001600160a01b03831661202b578060025f82825461202091906123fd565b9091555061209b9050565b6001600160a01b0383165f908152602081905260409020548181101561207d5760405163391434e360e21b81526001600160a01b03851660048201526024810182905260448101839052606401610a3e565b6001600160a01b0384165f9081526020819052604090209082900390555b6001600160a01b0382166120b7576002805482900390556120d5565b6001600160a01b0382165f9081526020819052604090208054820190555b816001600160a01b0316836001600160a01b03167fddf252ad1be2c89b69c2b068fc378daa952ba7f163c4a11628f55a4df523b3ef8360405161211a91815260200190565b60405180910390a3505050565b5f60208284031215612137575f80fd5b81356001600160e01b0319811681146115fd575f80fd5b5f6020828403121561215e575f80fd5b5035919050565b602081525f82518060208401528060208501604085015e5f604082850101526040601f19601f83011684010191505092915050565b80356001600160a01b03811681146121b0575f80fd5b919050565b5f80604083850312156121c6575f80fd5b6121cf8361219a565b946020939093013593505050565b5f805f606084860312156121ef575f80fd5b6121f88461219a565b92506122066020850161219a565b9150604084013590509250925092565b5f8060408385031215612227575f80fd5b823591506122376020840161219a565b90509250929050565b5f60208284031215612250575f80fd5b6115fd8261219a565b5f806040838503121561226a575f80fd5b6122738361219a565b91506122376020840161219a565b602080825282518282018190525f919060409081850190868401855b828110156122cc578151805185528681015187860152850151858501526060909301929085019060010161229d565b5091979650505050505050565b80151581146119c4575f80fd5b5f805f80608085870312156122f9575f80fd5b6123028561219a565b935060208501359250604085013591506060850135612320816122d9565b939692955090935050565b600181811c9082168061233f57607f821691505b60208210810361141857634e487b7160e01b5f52602260045260245ffd5b6020808252600e908201526d125b9d985b1a5908185b5bdd5b9d60921b604082015260600190565b634e487b7160e01b5f52601160045260245ffd5b818103818111156109cf576109cf612385565b5f602082840312156123bc575f80fd5b81516115fd816122d9565b80820281158282048414176109cf576109cf612385565b5f826123f857634e487b7160e01b5f52601260045260245ffd5b500490565b808201808211156109cf576109cf612385565b5f60208284031215612420575f80fd5b5051919050565b805169ffffffffffffffffffff811681146121b0575f80fd5b5f805f805f60a08688031215612454575f80fd5b61245d86612427565b945060208601519350604086015192506060860151915061248060808701612427565b9050929550929590935056fea264697066735822122058710879abb73821efa62e1fcb7a5c95f46dda537c1606fb6fcfadd297ad9d7b64736f6c63430008190033",
          "opcodes": "PUSH1 0xC0 PUSH1 0x40 MSTORE PUSH2 0x3E8 PUSH1 0xC SSTORE CALLVALUE DUP1 ISZERO PUSH2 0x15 JUMPI PUSH0 DUP1 REVERT JUMPDEST POP PUSH1 0x40 MLOAD PUSH2 0x2AB3 CODESIZE SUB DUP1 PUSH2 0x2AB3 DUP4 CODECOPY DUP2 ADD PUSH1 0x40 DUP2 SWAP1 MSTORE PUSH2 0x34 SWAP2 PUSH2 0x3F2 JUMP JUMPDEST CALLER PUSH1 0x40 MLOAD DUP1 PUSH1 0x40 ADD PUSH1 0x40 MSTORE DUP1 PUSH1 0x14 DUP2 MSTORE PUSH1 0x20 ADD PUSH32 0x4E65656D4F53204361706974616C205368617265000000000000000000000000 DUP2 MSTORE POP PUSH1 0x40 MLOAD DUP1 PUSH1 0x40 ADD PUSH1 0x40 MSTORE DUP1 PUSH1 0x4 DUP2 MSTORE PUSH1 0x20 ADD PUSH4 0x4E43415 PUSH1 0xE4 SHL DUP2 MSTORE POP DUP2 PUSH1 0x3 SWAP1 DUP2 PUSH2 0x97 SWAP2 SWAP1 PUSH2 0x4F5 JUMP JUMPDEST POP PUSH1 0x4 PUSH2 0xA4 DUP3 DUP3 PUSH2 0x4F5 JUMP JUMPDEST POP POP POP PUSH1 0x1 PUSH1 0x1 PUSH1 0xA0 SHL SUB DUP2 AND PUSH2 0xD5 JUMPI PUSH1 0x40 MLOAD PUSH4 0x1E4FBDF7 PUSH1 0xE0 SHL DUP2 MSTORE PUSH0 PUSH1 0x4 DUP3 ADD MSTORE PUSH1 0x24 ADD JUMPDEST PUSH1 0x40 MLOAD DUP1 SWAP2 SUB SWAP1 REVERT JUMPDEST PUSH2 0xDE DUP2 PUSH2 0x23D JUMP JUMPDEST POP PUSH0 DUP5 MLOAD GT PUSH2 0x12F JUMPI PUSH1 0x40 MLOAD PUSH3 0x461BCD PUSH1 0xE5 SHL DUP2 MSTORE PUSH1 0x20 PUSH1 0x4 DUP3 ADD MSTORE PUSH1 0x13 PUSH1 0x24 DUP3 ADD MSTORE PUSH32 0x4173736574206E616D6520726571756972656400000000000000000000000000 PUSH1 0x44 DUP3 ADD MSTORE PUSH1 0x64 ADD PUSH2 0xCC JUMP JUMPDEST PUSH0 DUP4 MLOAD GT PUSH2 0x17F JUMPI PUSH1 0x40 MLOAD PUSH3 0x461BCD PUSH1 0xE5 SHL DUP2 MSTORE PUSH1 0x20 PUSH1 0x4 DUP3 ADD MSTORE PUSH1 0x17 PUSH1 0x24 DUP3 ADD MSTORE PUSH32 0x41737365742063617465676F7279207265717569726564000000000000000000 PUSH1 0x44 DUP3 ADD MSTORE PUSH1 0x64 ADD PUSH2 0xCC JUMP JUMPDEST PUSH1 0xE PUSH2 0x18B DUP6 DUP3 PUSH2 0x4F5 JUMP JUMPDEST POP PUSH1 0xF PUSH2 0x198 DUP5 DUP3 PUSH2 0x4F5 JUMP JUMPDEST POP PUSH1 0x1 PUSH1 0x1 PUSH1 0xA0 SHL SUB DUP3 AND ISZERO PUSH2 0x1B6 JUMPI PUSH1 0x1 PUSH1 0x1 PUSH1 0xA0 SHL SUB DUP3 AND PUSH1 0x80 MSTORE JUMPDEST PUSH1 0x1 PUSH1 0x1 PUSH1 0xA0 SHL SUB DUP2 AND ISZERO PUSH2 0x1D3 JUMPI PUSH1 0x1 PUSH1 0x1 PUSH1 0xA0 SHL SUB DUP2 AND PUSH1 0xA0 MSTORE JUMPDEST PUSH2 0x1DD PUSH0 CALLER PUSH2 0x28E JUMP JUMPDEST POP PUSH2 0x208 PUSH32 0x470F4F1717679395B6A9E0700797BFEEAA970F1643E72F5684D687C0BE10FE27 CALLER PUSH2 0x28E JUMP JUMPDEST POP PUSH2 0x233 PUSH32 0xD810F479110C9771EC744414E571D78468B4E92A20F345DF2FFBDC5F927A182E CALLER PUSH2 0x28E JUMP JUMPDEST POP POP POP POP POP PUSH2 0x5B4 JUMP JUMPDEST PUSH1 0x5 DUP1 SLOAD PUSH1 0x1 PUSH1 0x1 PUSH1 0xA0 SHL SUB DUP4 DUP2 AND PUSH1 0x1 PUSH1 0x1 PUSH1 0xA0 SHL SUB NOT DUP4 AND DUP2 OR SWAP1 SWAP4 SSTORE PUSH1 0x40 MLOAD SWAP2 AND SWAP2 SWAP1 DUP3 SWAP1 PUSH32 0x8BE0079C531659141344CD1FD0A4F28419497F9722A3DAAFE3B4186F6B6457E0 SWAP1 PUSH0 SWAP1 LOG3 POP POP JUMP JUMPDEST PUSH0 DUP3 DUP2 MSTORE PUSH1 0x6 PUSH1 0x20 SWAP1 DUP2 MSTORE PUSH1 0x40 DUP1 DUP4 KECCAK256 PUSH1 0x1 PUSH1 0x1 PUSH1 0xA0 SHL SUB DUP6 AND DUP5 MSTORE SWAP1 SWAP2 MSTORE DUP2 KECCAK256 SLOAD PUSH1 0xFF AND PUSH2 0x332 JUMPI PUSH0 DUP4 DUP2 MSTORE PUSH1 0x6 PUSH1 0x20 SWAP1 DUP2 MSTORE PUSH1 0x40 DUP1 DUP4 KECCAK256 PUSH1 0x1 PUSH1 0x1 PUSH1 0xA0 SHL SUB DUP7 AND DUP5 MSTORE SWAP1 SWAP2 MSTORE SWAP1 KECCAK256 DUP1 SLOAD PUSH1 0xFF NOT AND PUSH1 0x1 OR SWAP1 SSTORE PUSH2 0x2EA CALLER SWAP1 JUMP JUMPDEST PUSH1 0x1 PUSH1 0x1 PUSH1 0xA0 SHL SUB AND DUP3 PUSH1 0x1 PUSH1 0x1 PUSH1 0xA0 SHL SUB AND DUP5 PUSH32 0x2F8788117E7EFF1D82E926EC794901D17C78024A50270940304540A733656F0D PUSH1 0x40 MLOAD PUSH1 0x40 MLOAD DUP1 SWAP2 SUB SWAP1 LOG4 POP PUSH1 0x1 PUSH2 0x335 JUMP JUMPDEST POP PUSH0 JUMPDEST SWAP3 SWAP2 POP POP JUMP JUMPDEST PUSH4 0x4E487B71 PUSH1 0xE0 SHL PUSH0 MSTORE PUSH1 0x41 PUSH1 0x4 MSTORE PUSH1 0x24 PUSH0 REVERT JUMPDEST PUSH0 DUP3 PUSH1 0x1F DUP4 ADD SLT PUSH2 0x35E JUMPI PUSH0 DUP1 REVERT JUMPDEST DUP2 MLOAD PUSH1 0x1 PUSH1 0x1 PUSH1 0x40 SHL SUB DUP1 DUP3 GT ISZERO PUSH2 0x378 JUMPI PUSH2 0x378 PUSH2 0x33B JUMP JUMPDEST PUSH1 0x40 MLOAD PUSH1 0x1F DUP4 ADD PUSH1 0x1F NOT SWAP1 DUP2 AND PUSH1 0x3F ADD AND DUP2 ADD SWAP1 DUP3 DUP3 GT DUP2 DUP4 LT OR ISZERO PUSH2 0x3A0 JUMPI PUSH2 0x3A0 PUSH2 0x33B JUMP JUMPDEST DUP2 PUSH1 0x40 MSTORE DUP4 DUP2 MSTORE DUP7 PUSH1 0x20 DUP6 DUP9 ADD ADD GT ISZERO PUSH2 0x3B8 JUMPI PUSH0 DUP1 REVERT JUMPDEST DUP4 PUSH1 0x20 DUP8 ADD PUSH1 0x20 DUP4 ADD MCOPY PUSH0 PUSH1 0x20 DUP6 DUP4 ADD ADD MSTORE DUP1 SWAP5 POP POP POP POP POP SWAP3 SWAP2 POP POP JUMP JUMPDEST DUP1 MLOAD PUSH1 0x1 PUSH1 0x1 PUSH1 0xA0 SHL SUB DUP2 AND DUP2 EQ PUSH2 0x3ED JUMPI PUSH0 DUP1 REVERT JUMPDEST SWAP2 SWAP1 POP JUMP JUMPDEST PUSH0 DUP1 PUSH0 DUP1 PUSH1 0x80 DUP6 DUP8 SUB SLT ISZERO PUSH2 0x405 JUMPI PUSH0 DUP1 REVERT JUMPDEST DUP5 MLOAD PUSH1 0x1 PUSH1 0x1 PUSH1 0x40 SHL SUB DUP1 DUP3 GT ISZERO PUSH2 0x41B JUMPI PUSH0 DUP1 REVERT JUMPDEST PUSH2 0x427 DUP9 DUP4 DUP10 ADD PUSH2 0x34F JUMP JUMPDEST SWAP6 POP PUSH1 0x20 DUP8 ADD MLOAD SWAP2 POP DUP1 DUP3 GT ISZERO PUSH2 0x43C JUMPI PUSH0 DUP1 REVERT JUMPDEST POP PUSH2 0x449 DUP8 DUP3 DUP9 ADD PUSH2 0x34F JUMP JUMPDEST SWAP4 POP POP PUSH2 0x458 PUSH1 0x40 DUP7 ADD PUSH2 0x3D7 JUMP JUMPDEST SWAP2 POP PUSH2 0x466 PUSH1 0x60 DUP7 ADD PUSH2 0x3D7 JUMP JUMPDEST SWAP1 POP SWAP3 SWAP6 SWAP2 SWAP5 POP SWAP3 POP JUMP JUMPDEST PUSH1 0x1 DUP2 DUP2 SHR SWAP1 DUP3 AND DUP1 PUSH2 0x485 JUMPI PUSH1 0x7F DUP3 AND SWAP2 POP JUMPDEST PUSH1 0x20 DUP3 LT DUP2 SUB PUSH2 0x4A3 JUMPI PUSH4 0x4E487B71 PUSH1 0xE0 SHL PUSH0 MSTORE PUSH1 0x22 PUSH1 0x4 MSTORE PUSH1 0x24 PUSH0 REVERT JUMPDEST POP SWAP2 SWAP1 POP JUMP JUMPDEST PUSH1 0x1F DUP3 GT ISZERO PUSH2 0x4F0 JUMPI DUP1 PUSH0 MSTORE PUSH1 0x20 PUSH0 KECCAK256 PUSH1 0x1F DUP5 ADD PUSH1 0x5 SHR DUP2 ADD PUSH1 0x20 DUP6 LT ISZERO PUSH2 0x4CE JUMPI POP DUP1 JUMPDEST PUSH1 0x1F DUP5 ADD PUSH1 0x5 SHR DUP3 ADD SWAP2 POP JUMPDEST DUP2 DUP2 LT ISZERO PUSH2 0x4ED JUMPI PUSH0 DUP2 SSTORE PUSH1 0x1 ADD PUSH2 0x4DA JUMP JUMPDEST POP POP JUMPDEST POP POP POP JUMP JUMPDEST DUP2 MLOAD PUSH1 0x1 PUSH1 0x1 PUSH1 0x40 SHL SUB DUP2 GT ISZERO PUSH2 0x50E JUMPI PUSH2 0x50E PUSH2 0x33B JUMP JUMPDEST PUSH2 0x522 DUP2 PUSH2 0x51C DUP5 SLOAD PUSH2 0x471 JUMP JUMPDEST DUP5 PUSH2 0x4A9 JUMP JUMPDEST PUSH1 0x20 DUP1 PUSH1 0x1F DUP4 GT PUSH1 0x1 DUP2 EQ PUSH2 0x555 JUMPI PUSH0 DUP5 ISZERO PUSH2 0x53E JUMPI POP DUP6 DUP4 ADD MLOAD JUMPDEST PUSH0 NOT PUSH1 0x3 DUP7 SWAP1 SHL SHR NOT AND PUSH1 0x1 DUP6 SWAP1 SHL OR DUP6 SSTORE PUSH2 0x5AC JUMP JUMPDEST PUSH0 DUP6 DUP2 MSTORE PUSH1 0x20 DUP2 KECCAK256 PUSH1 0x1F NOT DUP7 AND SWAP2 JUMPDEST DUP3 DUP2 LT ISZERO PUSH2 0x583 JUMPI DUP9 DUP7 ADD MLOAD DUP3 SSTORE SWAP5 DUP5 ADD SWAP5 PUSH1 0x1 SWAP1 SWAP2 ADD SWAP1 DUP5 ADD PUSH2 0x564 JUMP JUMPDEST POP DUP6 DUP3 LT ISZERO PUSH2 0x5A0 JUMPI DUP8 DUP6 ADD MLOAD PUSH0 NOT PUSH1 0x3 DUP9 SWAP1 SHL PUSH1 0xF8 AND SHR NOT AND DUP2 SSTORE JUMPDEST POP POP PUSH1 0x1 DUP5 PUSH1 0x1 SHL ADD DUP6 SSTORE JUMPDEST POP POP POP POP POP POP JUMP JUMPDEST PUSH1 0x80 MLOAD PUSH1 0xA0 MLOAD PUSH2 0x24C2 PUSH2 0x5F1 PUSH0 CODECOPY PUSH0 DUP2 DUP2 PUSH2 0x89C ADD MSTORE DUP2 DUP2 PUSH2 0xD70 ADD MSTORE DUP2 DUP2 PUSH2 0xF2C ADD MSTORE PUSH2 0x114D ADD MSTORE PUSH0 DUP2 DUP2 PUSH2 0x581 ADD MSTORE PUSH2 0x12F5 ADD MSTORE PUSH2 0x24C2 PUSH0 RETURN INVALID PUSH1 0x80 PUSH1 0x40 MSTORE PUSH1 0x4 CALLDATASIZE LT PUSH2 0x2D9 JUMPI PUSH0 CALLDATALOAD PUSH1 0xE0 SHR DUP1 PUSH4 0x817B1CD2 GT PUSH2 0x189 JUMPI DUP1 PUSH4 0xC9230C5D GT PUSH2 0xD8 JUMPI DUP1 PUSH4 0xE8B5E51F GT PUSH2 0x92 JUMPI DUP1 PUSH4 0xF2FDE38B GT PUSH2 0x6D JUMPI DUP1 PUSH4 0xF2FDE38B EQ PUSH2 0x8DF JUMPI DUP1 PUSH4 0xFBADF195 EQ PUSH2 0x8FE JUMPI DUP1 PUSH4 0xFDB20CCB EQ PUSH2 0x91D JUMPI DUP1 PUSH4 0xFE9E9640 EQ PUSH2 0x992 JUMPI PUSH0 DUP1 REVERT JUMPDEST DUP1 PUSH4 0xE8B5E51F EQ PUSH2 0x883 JUMPI DUP1 PUSH4 0xE9CBD822 EQ PUSH2 0x88B JUMPI DUP1 PUSH4 0xE9CE131D EQ PUSH2 0x8BE JUMPI PUSH0 DUP1 REVERT JUMPDEST DUP1 PUSH4 0xC9230C5D EQ PUSH2 0x7AE JUMPI DUP1 PUSH4 0xD547741F EQ PUSH2 0x7C2 JUMPI DUP1 PUSH4 0xD5A73FDD EQ PUSH2 0x7E1 JUMPI DUP1 PUSH4 0xDD62ED3E EQ PUSH2 0x800 JUMPI DUP1 PUSH4 0xDE3AAF61 EQ PUSH2 0x844 JUMPI DUP1 PUSH4 0xE74F3FBB EQ PUSH2 0x86F JUMPI PUSH0 DUP1 REVERT JUMPDEST DUP1 PUSH4 0x9DEE9376 GT PUSH2 0x143 JUMPI DUP1 PUSH4 0xA9059CBB GT PUSH2 0x11E JUMPI DUP1 PUSH4 0xA9059CBB EQ PUSH2 0x729 JUMPI DUP1 PUSH4 0xAFC695CE EQ PUSH2 0x748 JUMPI DUP1 PUSH4 0xB8664DCA EQ PUSH2 0x75C JUMPI DUP1 PUSH4 0xC7926458 EQ PUSH2 0x78F JUMPI PUSH0 DUP1 REVERT JUMPDEST DUP1 PUSH4 0x9DEE9376 EQ PUSH2 0x6E2 JUMPI DUP1 PUSH4 0xA217FDDF EQ PUSH2 0x6F7 JUMPI DUP1 PUSH4 0xA694FC3A EQ PUSH2 0x70A JUMPI PUSH0 DUP1 REVERT JUMPDEST DUP1 PUSH4 0x817B1CD2 EQ PUSH2 0x609 JUMPI DUP1 PUSH4 0x8DA5CB5B EQ PUSH2 0x61E JUMPI DUP1 PUSH4 0x8E15F473 EQ PUSH2 0x63B JUMPI DUP1 PUSH4 0x91D14854 EQ PUSH2 0x64F JUMPI DUP1 PUSH4 0x94EECB50 EQ PUSH2 0x66E JUMPI DUP1 PUSH4 0x95D89B41 EQ PUSH2 0x6CE JUMPI PUSH0 DUP1 REVERT JUMPDEST DUP1 PUSH4 0x2E17DE78 GT PUSH2 0x245 JUMPI DUP1 PUSH4 0x406DD96B GT PUSH2 0x1FF JUMPI DUP1 PUSH4 0x715018A6 GT PUSH2 0x1DA JUMPI DUP1 PUSH4 0x715018A6 EQ PUSH2 0x55C JUMPI DUP1 PUSH4 0x741BEF1A EQ PUSH2 0x570 JUMPI DUP1 PUSH4 0x7783A4A8 EQ PUSH2 0x5BB JUMPI DUP1 PUSH4 0x7E9CAE0E EQ PUSH2 0x5CF JUMPI PUSH0 DUP1 REVERT JUMPDEST DUP1 PUSH4 0x406DD96B EQ PUSH2 0x4F4 JUMPI DUP1 PUSH4 0x6FF1C9BC EQ PUSH2 0x509 JUMPI DUP1 PUSH4 0x70A08231 EQ PUSH2 0x528 JUMPI PUSH0 DUP1 REVERT JUMPDEST DUP1 PUSH4 0x2E17DE78 EQ PUSH2 0x449 JUMPI DUP1 PUSH4 0x2E92ABDD EQ PUSH2 0x468 JUMPI DUP1 PUSH4 0x2F2FF15D EQ PUSH2 0x47C JUMPI DUP1 PUSH4 0x313CE567 EQ PUSH2 0x49B JUMPI DUP1 PUSH4 0x3243C791 EQ PUSH2 0x4B6 JUMPI DUP1 PUSH4 0x36568ABE EQ PUSH2 0x4D5 JUMPI PUSH0 DUP1 REVERT JUMPDEST DUP1 PUSH4 0x18160DDD GT PUSH2 0x296 JUMPI DUP1 PUSH4 0x18160DDD EQ PUSH2 0x3AA JUMPI DUP1 PUSH4 0x1C763596 EQ PUSH2 0x3BE JUMPI DUP1 PUSH4 0x23B872DD EQ PUSH2 0x3D3 JUMPI DUP1 PUSH4 0x248A9CA3 EQ PUSH2 0x3F2 JUMPI DUP1 PUSH4 0x260BBB4A EQ PUSH2 0x420 JUMPI DUP1 PUSH4 0x2C26D8EE EQ PUSH2 0x435 JUMPI PUSH0 DUP1 REVERT JUMPDEST DUP1 PUSH4 0x1FFC9A7 EQ PUSH2 0x2DD JUMPI DUP1 PUSH4 0x3483536 EQ PUSH2 0x311 JUMPI DUP1 PUSH4 0x6FDDE03 EQ PUSH2 0x332 JUMPI DUP1 PUSH4 0x95EA7B3 EQ PUSH2 0x353 JUMPI DUP1 PUSH4 0x10EA13DF EQ PUSH2 0x372 JUMPI DUP1 PUSH4 0x1531B62A EQ PUSH2 0x395 JUMPI JUMPDEST PUSH0 DUP1 REVERT JUMPDEST CALLVALUE DUP1 ISZERO PUSH2 0x2E8 JUMPI PUSH0 DUP1 REVERT JUMPDEST POP PUSH2 0x2FC PUSH2 0x2F7 CALLDATASIZE PUSH1 0x4 PUSH2 0x2127 JUMP JUMPDEST PUSH2 0x9C5 JUMP JUMPDEST PUSH1 0x40 MLOAD SWAP1 ISZERO ISZERO DUP2 MSTORE PUSH1 0x20 ADD JUMPDEST PUSH1 0x40 MLOAD DUP1 SWAP2 SUB SWAP1 RETURN JUMPDEST CALLVALUE DUP1 ISZERO PUSH2 0x31C JUMPI PUSH0 DUP1 REVERT JUMPDEST POP PUSH2 0x330 PUSH2 0x32B CALLDATASIZE PUSH1 0x4 PUSH2 0x214E JUMP JUMPDEST PUSH2 0x9D5 JUMP JUMPDEST STOP JUMPDEST CALLVALUE DUP1 ISZERO PUSH2 0x33D JUMPI PUSH0 DUP1 REVERT JUMPDEST POP PUSH2 0x346 PUSH2 0xA90 JUMP JUMPDEST PUSH1 0x40 MLOAD PUSH2 0x308 SWAP2 SWAP1 PUSH2 0x2165 JUMP JUMPDEST CALLVALUE DUP1 ISZERO PUSH2 0x35E JUMPI PUSH0 DUP1 REVERT JUMPDEST POP PUSH2 0x2FC PUSH2 0x36D CALLDATASIZE PUSH1 0x4 PUSH2 0x21B5 JUMP JUMPDEST PUSH2 0xB20 JUMP JUMPDEST CALLVALUE DUP1 ISZERO PUSH2 0x37D JUMPI PUSH0 DUP1 REVERT JUMPDEST POP PUSH2 0x387 PUSH1 0x10 SLOAD DUP2 JUMP JUMPDEST PUSH1 0x40 MLOAD SWAP1 DUP2 MSTORE PUSH1 0x20 ADD PUSH2 0x308 JUMP JUMPDEST CALLVALUE DUP1 ISZERO PUSH2 0x3A0 JUMPI PUSH0 DUP1 REVERT JUMPDEST POP PUSH2 0x387 PUSH1 0xC SLOAD DUP2 JUMP JUMPDEST CALLVALUE DUP1 ISZERO PUSH2 0x3B5 JUMPI PUSH0 DUP1 REVERT JUMPDEST POP PUSH1 0x2 SLOAD PUSH2 0x387 JUMP JUMPDEST CALLVALUE DUP1 ISZERO PUSH2 0x3C9 JUMPI PUSH0 DUP1 REVERT JUMPDEST POP PUSH2 0x387 PUSH1 0x7 SLOAD DUP2 JUMP JUMPDEST CALLVALUE DUP1 ISZERO PUSH2 0x3DE JUMPI PUSH0 DUP1 REVERT JUMPDEST POP PUSH2 0x2FC PUSH2 0x3ED CALLDATASIZE PUSH1 0x4 PUSH2 0x21DD JUMP JUMPDEST PUSH2 0xB37 JUMP JUMPDEST CALLVALUE DUP1 ISZERO PUSH2 0x3FD JUMPI PUSH0 DUP1 REVERT JUMPDEST POP PUSH2 0x387 PUSH2 0x40C CALLDATASIZE PUSH1 0x4 PUSH2 0x214E JUMP JUMPDEST PUSH0 SWAP1 DUP2 MSTORE PUSH1 0x6 PUSH1 0x20 MSTORE PUSH1 0x40 SWAP1 KECCAK256 PUSH1 0x1 ADD SLOAD SWAP1 JUMP JUMPDEST CALLVALUE DUP1 ISZERO PUSH2 0x42B JUMPI PUSH0 DUP1 REVERT JUMPDEST POP PUSH2 0x387 PUSH1 0x12 SLOAD DUP2 JUMP JUMPDEST CALLVALUE DUP1 ISZERO PUSH2 0x440 JUMPI PUSH0 DUP1 REVERT JUMPDEST POP PUSH2 0x346 PUSH2 0xB5A JUMP JUMPDEST CALLVALUE DUP1 ISZERO PUSH2 0x454 JUMPI PUSH0 DUP1 REVERT JUMPDEST POP PUSH2 0x330 PUSH2 0x463 CALLDATASIZE PUSH1 0x4 PUSH2 0x214E JUMP JUMPDEST PUSH2 0xBE6 JUMP JUMPDEST CALLVALUE DUP1 ISZERO PUSH2 0x473 JUMPI PUSH0 DUP1 REVERT JUMPDEST POP PUSH2 0x330 PUSH2 0xCE2 JUMP JUMPDEST CALLVALUE DUP1 ISZERO PUSH2 0x487 JUMPI PUSH0 DUP1 REVERT JUMPDEST POP PUSH2 0x330 PUSH2 0x496 CALLDATASIZE PUSH1 0x4 PUSH2 0x2216 JUMP JUMPDEST PUSH2 0xE4A JUMP JUMPDEST CALLVALUE DUP1 ISZERO PUSH2 0x4A6 JUMPI PUSH0 DUP1 REVERT JUMPDEST POP PUSH1 0x40 MLOAD PUSH1 0x12 DUP2 MSTORE PUSH1 0x20 ADD PUSH2 0x308 JUMP JUMPDEST CALLVALUE DUP1 ISZERO PUSH2 0x4C1 JUMPI PUSH0 DUP1 REVERT JUMPDEST POP PUSH2 0x330 PUSH2 0x4D0 CALLDATASIZE PUSH1 0x4 PUSH2 0x214E JUMP JUMPDEST PUSH2 0xE74 JUMP JUMPDEST CALLVALUE DUP1 ISZERO PUSH2 0x4E0 JUMPI PUSH0 DUP1 REVERT JUMPDEST POP PUSH2 0x330 PUSH2 0x4EF CALLDATASIZE PUSH1 0x4 PUSH2 0x2216 JUMP JUMPDEST PUSH2 0x110B JUMP JUMPDEST CALLVALUE DUP1 ISZERO PUSH2 0x4FF JUMPI PUSH0 DUP1 REVERT JUMPDEST POP PUSH2 0x387 PUSH1 0x11 SLOAD DUP2 JUMP JUMPDEST CALLVALUE DUP1 ISZERO PUSH2 0x514 JUMPI PUSH0 DUP1 REVERT JUMPDEST POP PUSH2 0x330 PUSH2 0x523 CALLDATASIZE PUSH1 0x4 PUSH2 0x2240 JUMP JUMPDEST PUSH2 0x1143 JUMP JUMPDEST CALLVALUE DUP1 ISZERO PUSH2 0x533 JUMPI PUSH0 DUP1 REVERT JUMPDEST POP PUSH2 0x387 PUSH2 0x542 CALLDATASIZE PUSH1 0x4 PUSH2 0x2240 JUMP JUMPDEST PUSH1 0x1 PUSH1 0x1 PUSH1 0xA0 SHL SUB AND PUSH0 SWAP1 DUP2 MSTORE PUSH1 0x20 DUP2 SWAP1 MSTORE PUSH1 0x40 SWAP1 KECCAK256 SLOAD SWAP1 JUMP JUMPDEST CALLVALUE DUP1 ISZERO PUSH2 0x567 JUMPI PUSH0 DUP1 REVERT JUMPDEST POP PUSH2 0x330 PUSH2 0x12AC JUMP JUMPDEST CALLVALUE DUP1 ISZERO PUSH2 0x57B JUMPI PUSH0 DUP1 REVERT JUMPDEST POP PUSH2 0x5A3 PUSH32 0x0 DUP2 JUMP JUMPDEST PUSH1 0x40 MLOAD PUSH1 0x1 PUSH1 0x1 PUSH1 0xA0 SHL SUB SWAP1 SWAP2 AND DUP2 MSTORE PUSH1 0x20 ADD PUSH2 0x308 JUMP JUMPDEST CALLVALUE DUP1 ISZERO PUSH2 0x5C6 JUMPI PUSH0 DUP1 REVERT JUMPDEST POP PUSH1 0x13 SLOAD PUSH2 0x387 JUMP JUMPDEST CALLVALUE DUP1 ISZERO PUSH2 0x5DA JUMPI PUSH0 DUP1 REVERT JUMPDEST POP PUSH2 0x5EE PUSH2 0x5E9 CALLDATASIZE PUSH1 0x4 PUSH2 0x214E JUMP JUMPDEST PUSH2 0x12BF JUMP JUMPDEST PUSH1 0x40 DUP1 MLOAD SWAP4 DUP5 MSTORE PUSH1 0x20 DUP5 ADD SWAP3 SWAP1 SWAP3 MSTORE SWAP1 DUP3 ADD MSTORE PUSH1 0x60 ADD PUSH2 0x308 JUMP JUMPDEST CALLVALUE DUP1 ISZERO PUSH2 0x614 JUMPI PUSH0 DUP1 REVERT JUMPDEST POP PUSH2 0x387 PUSH1 0xA SLOAD DUP2 JUMP JUMPDEST CALLVALUE DUP1 ISZERO PUSH2 0x629 JUMPI PUSH0 DUP1 REVERT JUMPDEST POP PUSH1 0x5 SLOAD PUSH1 0x1 PUSH1 0x1 PUSH1 0xA0 SHL SUB AND PUSH2 0x5A3 JUMP JUMPDEST CALLVALUE DUP1 ISZERO PUSH2 0x646 JUMPI PUSH0 DUP1 REVERT JUMPDEST POP PUSH2 0x387 PUSH2 0x12F0 JUMP JUMPDEST CALLVALUE DUP1 ISZERO PUSH2 0x65A JUMPI PUSH0 DUP1 REVERT JUMPDEST POP PUSH2 0x2FC PUSH2 0x669 CALLDATASIZE PUSH1 0x4 PUSH2 0x2216 JUMP JUMPDEST PUSH2 0x141E JUMP JUMPDEST CALLVALUE DUP1 ISZERO PUSH2 0x679 JUMPI PUSH0 DUP1 REVERT JUMPDEST POP PUSH2 0x6AE PUSH2 0x688 CALLDATASIZE PUSH1 0x4 PUSH2 0x2240 JUMP JUMPDEST PUSH1 0x9 PUSH1 0x20 MSTORE PUSH0 SWAP1 DUP2 MSTORE PUSH1 0x40 SWAP1 KECCAK256 DUP1 SLOAD PUSH1 0x1 DUP3 ADD SLOAD PUSH1 0x2 DUP4 ADD SLOAD PUSH1 0x3 SWAP1 SWAP4 ADD SLOAD SWAP2 SWAP3 SWAP1 SWAP2 DUP5 JUMP JUMPDEST PUSH1 0x40 DUP1 MLOAD SWAP5 DUP6 MSTORE PUSH1 0x20 DUP6 ADD SWAP4 SWAP1 SWAP4 MSTORE SWAP2 DUP4 ADD MSTORE PUSH1 0x60 DUP3 ADD MSTORE PUSH1 0x80 ADD PUSH2 0x308 JUMP JUMPDEST CALLVALUE DUP1 ISZERO PUSH2 0x6D9 JUMPI PUSH0 DUP1 REVERT JUMPDEST POP PUSH2 0x346 PUSH2 0x1448 JUMP JUMPDEST CALLVALUE DUP1 ISZERO PUSH2 0x6ED JUMPI PUSH0 DUP1 REVERT JUMPDEST POP PUSH2 0x387 PUSH1 0xB SLOAD DUP2 JUMP JUMPDEST CALLVALUE DUP1 ISZERO PUSH2 0x702 JUMPI PUSH0 DUP1 REVERT JUMPDEST POP PUSH2 0x387 PUSH0 DUP2 JUMP JUMPDEST CALLVALUE DUP1 ISZERO PUSH2 0x715 JUMPI PUSH0 DUP1 REVERT JUMPDEST POP PUSH2 0x330 PUSH2 0x724 CALLDATASIZE PUSH1 0x4 PUSH2 0x214E JUMP JUMPDEST PUSH2 0x1457 JUMP JUMPDEST CALLVALUE DUP1 ISZERO PUSH2 0x734 JUMPI PUSH0 DUP1 REVERT JUMPDEST POP PUSH2 0x2FC PUSH2 0x743 CALLDATASIZE PUSH1 0x4 PUSH2 0x21B5 JUMP JUMPDEST PUSH2 0x1583 JUMP JUMPDEST CALLVALUE DUP1 ISZERO PUSH2 0x753 JUMPI PUSH0 DUP1 REVERT JUMPDEST POP PUSH2 0x330 PUSH2 0x1590 JUMP JUMPDEST CALLVALUE DUP1 ISZERO PUSH2 0x767 JUMPI PUSH0 DUP1 REVERT JUMPDEST POP PUSH2 0x387 PUSH32 0xD810F479110C9771EC744414E571D78468B4E92A20F345DF2FFBDC5F927A182E DUP2 JUMP JUMPDEST CALLVALUE DUP1 ISZERO PUSH2 0x79A JUMPI PUSH0 DUP1 REVERT JUMPDEST POP PUSH2 0x387 PUSH2 0x7A9 CALLDATASIZE PUSH1 0x4 PUSH2 0x2240 JUMP JUMPDEST PUSH2 0x1599 JUMP JUMPDEST CALLVALUE DUP1 ISZERO PUSH2 0x7B9 JUMPI PUSH0 DUP1 REVERT JUMPDEST POP PUSH2 0x346 PUSH2 0x1604 JUMP JUMPDEST CALLVALUE DUP1 ISZERO PUSH2 0x7CD JUMPI PUSH0 DUP1 REVERT JUMPDEST POP PUSH2 0x330 PUSH2 0x7DC CALLDATASIZE PUSH1 0x4 PUSH2 0x2216 JUMP JUMPDEST PUSH2 0x1611 JUMP JUMPDEST CALLVALUE DUP1 ISZERO PUSH2 0x7EC JUMPI PUSH0 DUP1 REVERT JUMPDEST POP PUSH2 0x387 PUSH2 0x7FB CALLDATASIZE PUSH1 0x4 PUSH2 0x2240 JUMP JUMPDEST PUSH2 0x1635 JUMP JUMPDEST CALLVALUE DUP1 ISZERO PUSH2 0x80B JUMPI PUSH0 DUP1 REVERT JUMPDEST POP PUSH2 0x387 PUSH2 0x81A CALLDATASIZE PUSH1 0x4 PUSH2 0x2259 JUMP JUMPDEST PUSH1 0x1 PUSH1 0x1 PUSH1 0xA0 SHL SUB SWAP2 DUP3 AND PUSH0 SWAP1 DUP2 MSTORE PUSH1 0x1 PUSH1 0x20 SWAP1 DUP2 MSTORE PUSH1 0x40 DUP1 DUP4 KECCAK256 SWAP4 SWAP1 SWAP5 AND DUP3 MSTORE SWAP2 SWAP1 SWAP2 MSTORE KECCAK256 SLOAD SWAP1 JUMP JUMPDEST CALLVALUE DUP1 ISZERO PUSH2 0x84F JUMPI PUSH0 DUP1 REVERT JUMPDEST POP PUSH2 0x387 PUSH2 0x85E CALLDATASIZE PUSH1 0x4 PUSH2 0x2240 JUMP JUMPDEST PUSH1 0x8 PUSH1 0x20 MSTORE PUSH0 SWAP1 DUP2 MSTORE PUSH1 0x40 SWAP1 KECCAK256 SLOAD DUP2 JUMP JUMPDEST CALLVALUE DUP1 ISZERO PUSH2 0x87A JUMPI PUSH0 DUP1 REVERT JUMPDEST POP PUSH2 0x330 PUSH2 0x170C JUMP JUMPDEST PUSH2 0x330 PUSH2 0x17C2 JUMP JUMPDEST CALLVALUE DUP1 ISZERO PUSH2 0x896 JUMPI PUSH0 DUP1 REVERT JUMPDEST POP PUSH2 0x5A3 PUSH32 0x0 DUP2 JUMP JUMPDEST CALLVALUE DUP1 ISZERO PUSH2 0x8C9 JUMPI PUSH0 DUP1 REVERT JUMPDEST POP PUSH2 0x8D2 PUSH2 0x1911 JUMP JUMPDEST PUSH1 0x40 MLOAD PUSH2 0x308 SWAP2 SWAP1 PUSH2 0x2281 JUMP JUMPDEST CALLVALUE DUP1 ISZERO PUSH2 0x8EA JUMPI PUSH0 DUP1 REVERT JUMPDEST POP PUSH2 0x330 PUSH2 0x8F9 CALLDATASIZE PUSH1 0x4 PUSH2 0x2240 JUMP JUMPDEST PUSH2 0x198A JUMP JUMPDEST CALLVALUE DUP1 ISZERO PUSH2 0x909 JUMPI PUSH0 DUP1 REVERT JUMPDEST POP PUSH2 0x330 PUSH2 0x918 CALLDATASIZE PUSH1 0x4 PUSH2 0x22E6 JUMP JUMPDEST PUSH2 0x19C7 JUMP JUMPDEST CALLVALUE DUP1 ISZERO PUSH2 0x928 JUMPI PUSH0 DUP1 REVERT JUMPDEST POP PUSH2 0x968 PUSH2 0x937 CALLDATASIZE PUSH1 0x4 PUSH2 0x2240 JUMP JUMPDEST PUSH1 0xD PUSH1 0x20 MSTORE PUSH0 SWAP1 DUP2 MSTORE PUSH1 0x40 SWAP1 KECCAK256 DUP1 SLOAD PUSH1 0x1 DUP3 ADD SLOAD PUSH1 0x2 DUP4 ADD SLOAD PUSH1 0x3 DUP5 ADD SLOAD PUSH1 0x4 SWAP1 SWAP5 ADD SLOAD SWAP3 SWAP4 SWAP2 SWAP3 SWAP1 SWAP2 SWAP1 PUSH1 0xFF AND DUP6 JUMP JUMPDEST PUSH1 0x40 DUP1 MLOAD SWAP6 DUP7 MSTORE PUSH1 0x20 DUP7 ADD SWAP5 SWAP1 SWAP5 MSTORE SWAP3 DUP5 ADD SWAP2 SWAP1 SWAP2 MSTORE PUSH1 0x60 DUP4 ADD MSTORE ISZERO ISZERO PUSH1 0x80 DUP3 ADD MSTORE PUSH1 0xA0 ADD PUSH2 0x308 JUMP JUMPDEST CALLVALUE DUP1 ISZERO PUSH2 0x99D JUMPI PUSH0 DUP1 REVERT JUMPDEST POP PUSH2 0x387 PUSH32 0x470F4F1717679395B6A9E0700797BFEEAA970F1643E72F5684D687C0BE10FE27 DUP2 JUMP JUMPDEST PUSH0 PUSH2 0x9CF DUP3 PUSH2 0x1B64 JUMP JUMPDEST SWAP3 SWAP2 POP POP JUMP JUMPDEST PUSH32 0x470F4F1717679395B6A9E0700797BFEEAA970F1643E72F5684D687C0BE10FE27 PUSH2 0x9FF DUP2 PUSH2 0x1B98 JUMP JUMPDEST PUSH0 DUP3 GT PUSH2 0xA47 JUMPI PUSH1 0x40 MLOAD PUSH3 0x461BCD PUSH1 0xE5 SHL DUP2 MSTORE PUSH1 0x20 PUSH1 0x4 DUP3 ADD MSTORE PUSH1 0x11 PUSH1 0x24 DUP3 ADD MSTORE PUSH17 0x24B73B30B634B2103B30B63AB0BA34B7B7 PUSH1 0x79 SHL PUSH1 0x44 DUP3 ADD MSTORE PUSH1 0x64 ADD JUMPDEST PUSH1 0x40 MLOAD DUP1 SWAP2 SUB SWAP1 REVERT JUMPDEST PUSH1 0x11 DUP3 SWAP1 SSTORE TIMESTAMP PUSH1 0x12 DUP2 SWAP1 SSTORE PUSH1 0x40 DUP1 MLOAD DUP5 DUP2 MSTORE PUSH1 0x20 DUP2 ADD SWAP3 SWAP1 SWAP3 MSTORE PUSH32 0x1A2ADB2C5C320CF62B125006275B281FF25F153039AD22608C743D266317E8E1 SWAP2 ADD PUSH1 0x40 MLOAD DUP1 SWAP2 SUB SWAP1 LOG1 POP POP JUMP JUMPDEST PUSH1 0x60 PUSH1 0x3 DUP1 SLOAD PUSH2 0xA9F SWAP1 PUSH2 0x232B JUMP JUMPDEST DUP1 PUSH1 0x1F ADD PUSH1 0x20 DUP1 SWAP2 DIV MUL PUSH1 0x20 ADD PUSH1 0x40 MLOAD SWAP1 DUP2 ADD PUSH1 0x40 MSTORE DUP1 SWAP3 SWAP2 SWAP1 DUP2 DUP2 MSTORE PUSH1 0x20 ADD DUP3 DUP1 SLOAD PUSH2 0xACB SWAP1 PUSH2 0x232B JUMP JUMPDEST DUP1 ISZERO PUSH2 0xB16 JUMPI DUP1 PUSH1 0x1F LT PUSH2 0xAED JUMPI PUSH2 0x100 DUP1 DUP4 SLOAD DIV MUL DUP4 MSTORE SWAP2 PUSH1 0x20 ADD SWAP2 PUSH2 0xB16 JUMP JUMPDEST DUP3 ADD SWAP2 SWAP1 PUSH0 MSTORE PUSH1 0x20 PUSH0 KECCAK256 SWAP1 JUMPDEST DUP2 SLOAD DUP2 MSTORE SWAP1 PUSH1 0x1 ADD SWAP1 PUSH1 0x20 ADD DUP1 DUP4 GT PUSH2 0xAF9 JUMPI DUP3 SWAP1 SUB PUSH1 0x1F AND DUP3 ADD SWAP2 JUMPDEST POP POP POP POP POP SWAP1 POP SWAP1 JUMP JUMPDEST PUSH0 CALLER PUSH2 0xB2D DUP2 DUP6 DUP6 PUSH2 0x1BA2 JUMP JUMPDEST POP PUSH1 0x1 SWAP4 SWAP3 POP POP POP JUMP JUMPDEST PUSH0 CALLER PUSH2 0xB44 DUP6 DUP3 DUP6 PUSH2 0x1BAF JUMP JUMPDEST PUSH2 0xB4F DUP6 DUP6 DUP6 PUSH2 0x1C25 JUMP JUMPDEST POP PUSH1 0x1 SWAP5 SWAP4 POP POP POP POP JUMP JUMPDEST PUSH1 0xF DUP1 SLOAD PUSH2 0xB67 SWAP1 PUSH2 0x232B JUMP JUMPDEST DUP1 PUSH1 0x1F ADD PUSH1 0x20 DUP1 SWAP2 DIV MUL PUSH1 0x20 ADD PUSH1 0x40 MLOAD SWAP1 DUP2 ADD PUSH1 0x40 MSTORE DUP1 SWAP3 SWAP2 SWAP1 DUP2 DUP2 MSTORE PUSH1 0x20 ADD DUP3 DUP1 SLOAD PUSH2 0xB93 SWAP1 PUSH2 0x232B JUMP JUMPDEST DUP1 ISZERO PUSH2 0xBDE JUMPI DUP1 PUSH1 0x1F LT PUSH2 0xBB5 JUMPI PUSH2 0x100 DUP1 DUP4 SLOAD DIV MUL DUP4 MSTORE SWAP2 PUSH1 0x20 ADD SWAP2 PUSH2 0xBDE JUMP JUMPDEST DUP3 ADD SWAP2 SWAP1 PUSH0 MSTORE PUSH1 0x20 PUSH0 KECCAK256 SWAP1 JUMPDEST DUP2 SLOAD DUP2 MSTORE SWAP1 PUSH1 0x1 ADD SWAP1 PUSH1 0x20 ADD DUP1 DUP4 GT PUSH2 0xBC1 JUMPI DUP3 SWAP1 SUB PUSH1 0x1F AND DUP3 ADD SWAP2 JUMPDEST POP POP POP POP POP DUP2 JUMP JUMPDEST PUSH0 DUP2 GT PUSH2 0xC05 JUMPI PUSH1 0x40 MLOAD PUSH3 0x461BCD PUSH1 0xE5 SHL DUP2 MSTORE PUSH1 0x4 ADD PUSH2 0xA3E SWAP1 PUSH2 0x235D JUMP JUMPDEST CALLER PUSH0 SWAP1 DUP2 MSTORE PUSH1 0x9 PUSH1 0x20 MSTORE PUSH1 0x40 SWAP1 KECCAK256 SLOAD DUP2 GT ISZERO PUSH2 0xC59 JUMPI PUSH1 0x40 MLOAD PUSH3 0x461BCD PUSH1 0xE5 SHL DUP2 MSTORE PUSH1 0x20 PUSH1 0x4 DUP3 ADD MSTORE PUSH1 0x13 PUSH1 0x24 DUP3 ADD MSTORE PUSH19 0x125B9CDD59999A58DA595B9D081CDD185AD959 PUSH1 0x6A SHL PUSH1 0x44 DUP3 ADD MSTORE PUSH1 0x64 ADD PUSH2 0xA3E JUMP JUMPDEST PUSH2 0xC62 CALLER PUSH2 0x1C82 JUMP JUMPDEST CALLER PUSH0 SWAP1 DUP2 MSTORE PUSH1 0x9 PUSH1 0x20 MSTORE PUSH1 0x40 DUP2 KECCAK256 DUP1 SLOAD DUP4 SWAP3 SWAP1 PUSH2 0xC80 SWAP1 DUP5 SWAP1 PUSH2 0x2399 JUMP JUMPDEST SWAP3 POP POP DUP2 SWAP1 SSTORE POP DUP1 PUSH1 0xA PUSH0 DUP3 DUP3 SLOAD PUSH2 0xC98 SWAP2 SWAP1 PUSH2 0x2399 JUMP JUMPDEST SWAP1 SWAP2 SSTORE POP PUSH2 0xCA9 SWAP1 POP ADDRESS CALLER DUP4 PUSH2 0x1C25 JUMP JUMPDEST PUSH1 0x40 MLOAD DUP2 DUP2 MSTORE CALLER SWAP1 PUSH32 0xF5BB82176FEB1B5E747E28471AA92156A04D9F3AB9F45F28E2D704232B93F75 SWAP1 PUSH1 0x20 ADD JUMPDEST PUSH1 0x40 MLOAD DUP1 SWAP2 SUB SWAP1 LOG2 POP JUMP JUMPDEST PUSH0 PUSH2 0xCEC CALLER PUSH2 0x1599 JUMP JUMPDEST SWAP1 POP PUSH0 DUP2 GT PUSH2 0xD34 JUMPI PUSH1 0x40 MLOAD PUSH3 0x461BCD PUSH1 0xE5 SHL DUP2 MSTORE PUSH1 0x20 PUSH1 0x4 DUP3 ADD MSTORE PUSH1 0x14 PUSH1 0x24 DUP3 ADD MSTORE PUSH20 0x4E6F206469766964656E64732070656E64696E67 PUSH1 0x60 SHL PUSH1 0x44 DUP3 ADD MSTORE PUSH1 0x64 ADD PUSH2 0xA3E JUMP JUMPDEST PUSH1 0x7 SLOAD CALLER PUSH0 DUP2 DUP2 MSTORE PUSH1 0x8 PUSH1 0x20 MSTORE PUSH1 0x40 SWAP1 DUP2 SWAP1 KECCAK256 SWAP3 SWAP1 SWAP3 SSTORE SWAP1 MLOAD PUSH4 0xA9059CBB PUSH1 0xE0 SHL DUP2 MSTORE PUSH1 0x4 DUP2 ADD SWAP2 SWAP1 SWAP2 MSTORE PUSH1 0x24 DUP2 ADD DUP3 SWAP1 MSTORE PUSH1 0x1 PUSH1 0x1 PUSH1 0xA0 SHL SUB PUSH32 0x0 AND SWAP1 PUSH4 0xA9059CBB SWAP1 PUSH1 0x44 ADD PUSH1 0x20 PUSH1 0x40 MLOAD DUP1 DUP4 SUB DUP2 PUSH0 DUP8 GAS CALL ISZERO DUP1 ISZERO PUSH2 0xDB6 JUMPI RETURNDATASIZE PUSH0 DUP1 RETURNDATACOPY RETURNDATASIZE PUSH0 REVERT JUMPDEST POP POP POP POP PUSH1 0x40 MLOAD RETURNDATASIZE PUSH1 0x1F NOT PUSH1 0x1F DUP3 ADD AND DUP3 ADD DUP1 PUSH1 0x40 MSTORE POP DUP2 ADD SWAP1 PUSH2 0xDDA SWAP2 SWAP1 PUSH2 0x23AC JUMP JUMPDEST PUSH2 0xE18 JUMPI PUSH1 0x40 MLOAD PUSH3 0x461BCD PUSH1 0xE5 SHL DUP2 MSTORE PUSH1 0x20 PUSH1 0x4 DUP3 ADD MSTORE PUSH1 0xF PUSH1 0x24 DUP3 ADD MSTORE PUSH15 0x151C985B9CD9995C8819985A5B1959 PUSH1 0x8A SHL PUSH1 0x44 DUP3 ADD MSTORE PUSH1 0x64 ADD PUSH2 0xA3E JUMP JUMPDEST PUSH1 0x40 MLOAD DUP2 DUP2 MSTORE CALLER SWAP1 PUSH32 0xEE503BEE2BB6A87E57BC57DB795F98137327401A0E7B7CE42E37926CC1A9CA4D SWAP1 PUSH1 0x20 ADD PUSH2 0xCD7 JUMP JUMPDEST PUSH0 DUP3 DUP2 MSTORE PUSH1 0x6 PUSH1 0x20 MSTORE PUSH1 0x40 SWAP1 KECCAK256 PUSH1 0x1 ADD SLOAD PUSH2 0xE64 DUP2 PUSH2 0x1B98 JUMP JUMPDEST PUSH2 0xE6E DUP4 DUP4 PUSH2 0x1D48 JUMP JUMPDEST POP POP POP POP JUMP JUMPDEST PUSH32 0x470F4F1717679395B6A9E0700797BFEEAA970F1643E72F5684D687C0BE10FE27 PUSH2 0xE9E DUP2 PUSH2 0x1B98 JUMP JUMPDEST PUSH0 PUSH2 0xEA8 PUSH1 0x2 SLOAD SWAP1 JUMP JUMPDEST SWAP1 POP PUSH0 DUP2 GT PUSH2 0xEEB JUMPI PUSH1 0x40 MLOAD PUSH3 0x461BCD PUSH1 0xE5 SHL DUP2 MSTORE PUSH1 0x20 PUSH1 0x4 DUP3 ADD MSTORE PUSH1 0xF PUSH1 0x24 DUP3 ADD MSTORE PUSH15 0x4E6F207368617265686F6C64657273 PUSH1 0x88 SHL PUSH1 0x44 DUP3 ADD MSTORE PUSH1 0x64 ADD PUSH2 0xA3E JUMP JUMPDEST PUSH0 DUP4 GT PUSH2 0xF0A JUMPI PUSH1 0x40 MLOAD PUSH3 0x461BCD PUSH1 0xE5 SHL DUP2 MSTORE PUSH1 0x4 ADD PUSH2 0xA3E SWAP1 PUSH2 0x235D JUMP JUMPDEST PUSH1 0x40 MLOAD PUSH4 0x23B872DD PUSH1 0xE0 SHL DUP2 MSTORE CALLER PUSH1 0x4 DUP3 ADD MSTORE ADDRESS PUSH1 0x24 DUP3 ADD MSTORE PUSH1 0x44 DUP2 ADD DUP5 SWAP1 MSTORE PUSH32 0x0 PUSH1 0x1 PUSH1 0x1 PUSH1 0xA0 SHL SUB AND SWAP1 PUSH4 0x23B872DD SWAP1 PUSH1 0x64 ADD PUSH1 0x20 PUSH1 0x40 MLOAD DUP1 DUP4 SUB DUP2 PUSH0 DUP8 GAS CALL ISZERO DUP1 ISZERO PUSH2 0xF7A JUMPI RETURNDATASIZE PUSH0 DUP1 RETURNDATACOPY RETURNDATASIZE PUSH0 REVERT JUMPDEST POP POP POP POP PUSH1 0x40 MLOAD RETURNDATASIZE PUSH1 0x1F NOT PUSH1 0x1F DUP3 ADD AND DUP3 ADD DUP1 PUSH1 0x40 MSTORE POP DUP2 ADD SWAP1 PUSH2 0xF9E SWAP2 SWAP1 PUSH2 0x23AC JUMP JUMPDEST PUSH2 0xFE1 JUMPI PUSH1 0x40 MLOAD PUSH3 0x461BCD PUSH1 0xE5 SHL DUP2 MSTORE PUSH1 0x20 PUSH1 0x4 DUP3 ADD MSTORE PUSH1 0x14 PUSH1 0x24 DUP3 ADD MSTORE PUSH20 0x1554D110C81D1C985B9CD9995C8819985A5B1959 PUSH1 0x62 SHL PUSH1 0x44 DUP3 ADD MSTORE PUSH1 0x64 ADD PUSH2 0xA3E JUMP JUMPDEST PUSH0 PUSH2 0xFEA PUSH2 0x12F0 JUMP JUMPDEST SWAP1 POP DUP2 PUSH2 0xFFF DUP6 PUSH8 0xDE0B6B3A7640000 PUSH2 0x23C7 JUMP JUMPDEST PUSH2 0x1009 SWAP2 SWAP1 PUSH2 0x23DE JUMP JUMPDEST PUSH1 0x7 PUSH0 DUP3 DUP3 SLOAD PUSH2 0x1019 SWAP2 SWAP1 PUSH2 0x23FD JUMP JUMPDEST SWAP1 SWAP2 SSTORE POP POP PUSH1 0x40 DUP1 MLOAD PUSH1 0x60 DUP1 DUP3 ADD DUP4 MSTORE TIMESTAMP DUP1 DUP4 MSTORE PUSH1 0x20 DUP1 DUP5 ADD DUP10 DUP2 MSTORE DUP5 DUP7 ADD DUP8 DUP2 MSTORE PUSH1 0x13 DUP1 SLOAD PUSH1 0x1 DUP2 ADD DUP3 SSTORE PUSH0 SWAP2 SWAP1 SWAP2 MSTORE SWAP6 MLOAD PUSH32 0x66DE8FFDA797E3DE9C05E8FC57B3BF0EC28A930D40B0D285D93C06501CF6A090 PUSH1 0x3 SWAP1 SWAP8 MUL SWAP7 DUP8 ADD SSTORE SWAP1 MLOAD PUSH32 0x66DE8FFDA797E3DE9C05E8FC57B3BF0EC28A930D40B0D285D93C06501CF6A091 DUP7 ADD SSTORE MLOAD PUSH32 0x66DE8FFDA797E3DE9C05E8FC57B3BF0EC28A930D40B0D285D93C06501CF6A092 SWAP1 SWAP5 ADD SWAP4 SWAP1 SWAP4 SSTORE PUSH1 0x7 SLOAD DUP5 MLOAD DUP10 DUP2 MSTORE SWAP4 DUP5 ADD DUP7 SWAP1 MSTORE SWAP4 DUP4 ADD SWAP4 SWAP1 SWAP4 MSTORE PUSH32 0xC6570A09263E2DBE9B55B3B62E5C111AF20C6CFB770F70C0AAB4660EF56CC337 SWAP2 ADD PUSH1 0x40 MLOAD DUP1 SWAP2 SUB SWAP1 LOG2 POP POP POP POP JUMP JUMPDEST PUSH1 0x1 PUSH1 0x1 PUSH1 0xA0 SHL SUB DUP2 AND CALLER EQ PUSH2 0x1134 JUMPI PUSH1 0x40 MLOAD PUSH4 0x334BD919 PUSH1 0xE1 SHL DUP2 MSTORE PUSH1 0x4 ADD PUSH1 0x40 MLOAD DUP1 SWAP2 SUB SWAP1 REVERT JUMPDEST PUSH2 0x113E DUP3 DUP3 PUSH2 0x1DD9 JUMP JUMPDEST POP POP POP JUMP JUMPDEST PUSH2 0x114B PUSH2 0x1E44 JUMP JUMPDEST PUSH32 0x0 PUSH1 0x1 PUSH1 0x1 PUSH1 0xA0 SHL SUB AND DUP2 PUSH1 0x1 PUSH1 0x1 PUSH1 0xA0 SHL SUB AND SUB PUSH2 0x11CC JUMPI PUSH1 0x40 MLOAD PUSH3 0x461BCD PUSH1 0xE5 SHL DUP2 MSTORE PUSH1 0x20 PUSH1 0x4 DUP3 ADD MSTORE PUSH1 0x1A PUSH1 0x24 DUP3 ADD MSTORE PUSH32 0x43616E6E6F7420776974686472617720737461626C65636F696E000000000000 PUSH1 0x44 DUP3 ADD MSTORE PUSH1 0x64 ADD PUSH2 0xA3E JUMP JUMPDEST PUSH1 0x40 MLOAD PUSH4 0x70A08231 PUSH1 0xE0 SHL DUP2 MSTORE ADDRESS PUSH1 0x4 DUP3 ADD MSTORE PUSH1 0x1 PUSH1 0x1 PUSH1 0xA0 SHL SUB DUP3 AND SWAP1 PUSH4 0xA9059CBB SWAP1 CALLER SWAP1 DUP4 SWAP1 PUSH4 0x70A08231 SWAP1 PUSH1 0x24 ADD PUSH1 0x20 PUSH1 0x40 MLOAD DUP1 DUP4 SUB DUP2 DUP7 GAS STATICCALL ISZERO DUP1 ISZERO PUSH2 0x1218 JUMPI RETURNDATASIZE PUSH0 DUP1 RETURNDATACOPY RETURNDATASIZE PUSH0 REVERT JUMPDEST POP POP POP POP PUSH1 0x40 MLOAD RETURNDATASIZE PUSH1 0x1F NOT PUSH1 0x1F DUP3 ADD AND DUP3 ADD DUP1 PUSH1 0x40 MSTORE POP DUP2 ADD SWAP1 PUSH2 0x123C SWAP2 SWAP1 PUSH2 0x2410 JUMP JUMPDEST PUSH1 0x40 MLOAD PUSH1 0x1 PUSH1 0x1 PUSH1 0xE0 SHL SUB NOT PUSH1 0xE0 DUP6 SWAP1 SHL AND DUP2 MSTORE PUSH1 0x1 PUSH1 0x1 PUSH1 0xA0 SHL SUB SWAP1 SWAP3 AND PUSH1 0x4 DUP4 ADD MSTORE PUSH1 0x24 DUP3 ADD MSTORE PUSH1 0x44 ADD PUSH1 0x20 PUSH1 0x40 MLOAD DUP1 DUP4 SUB DUP2 PUSH0 DUP8 GAS CALL ISZERO DUP1 ISZERO PUSH2 0x1284 JUMPI RETURNDATASIZE PUSH0 DUP1 RETURNDATACOPY RETURNDATASIZE PUSH0 REVERT JUMPDEST POP POP POP POP PUSH1 0x40 MLOAD RETURNDATASIZE PUSH1 0x1F NOT PUSH1 0x1F DUP3 ADD AND DUP3 ADD DUP1 PUSH1 0x40 MSTORE POP DUP2 ADD SWAP1 PUSH2 0x12A8 SWAP2 SWAP1 PUSH2 0x23AC JUMP JUMPDEST POP POP JUMP JUMPDEST PUSH2 0x12B4 PUSH2 0x1E44 JUMP JUMPDEST PUSH2 0x12BD PUSH0 PUSH2 0x1E71 JUMP JUMPDEST JUMP JUMPDEST PUSH1 0x13 DUP2 DUP2 SLOAD DUP2 LT PUSH2 0x12CE JUMPI PUSH0 DUP1 REVERT JUMPDEST PUSH0 SWAP2 DUP3 MSTORE PUSH1 0x20 SWAP1 SWAP2 KECCAK256 PUSH1 0x3 SWAP1 SWAP2 MUL ADD DUP1 SLOAD PUSH1 0x1 DUP3 ADD SLOAD PUSH1 0x2 SWAP1 SWAP3 ADD SLOAD SWAP1 SWAP3 POP DUP4 JUMP JUMPDEST PUSH0 DUP1 PUSH0 PUSH32 0x0 PUSH1 0x1 PUSH1 0x1 PUSH1 0xA0 SHL SUB AND PUSH4 0xFEAF968C PUSH1 0x40 MLOAD DUP2 PUSH4 0xFFFFFFFF AND PUSH1 0xE0 SHL DUP2 MSTORE PUSH1 0x4 ADD PUSH1 0xA0 PUSH1 0x40 MLOAD DUP1 DUP4 SUB DUP2 DUP7 GAS STATICCALL ISZERO DUP1 ISZERO PUSH2 0x134F JUMPI RETURNDATASIZE PUSH0 DUP1 RETURNDATACOPY RETURNDATASIZE PUSH0 REVERT JUMPDEST POP POP POP POP PUSH1 0x40 MLOAD RETURNDATASIZE PUSH1 0x1F NOT PUSH1 0x1F DUP3 ADD AND DUP3 ADD DUP1 PUSH1 0x40 MSTORE POP DUP2 ADD SWAP1 PUSH2 0x1373 SWAP2 SWAP1 PUSH2 0x2440 JUMP JUMPDEST POP SWAP4 POP POP SWAP3 POP POP PUSH0 DUP3 SGT PUSH2 0x13C9 JUMPI PUSH1 0x40 MLOAD PUSH3 0x461BCD PUSH1 0xE5 SHL DUP2 MSTORE PUSH1 0x20 PUSH1 0x4 DUP3 ADD MSTORE PUSH1 0x19 PUSH1 0x24 DUP3 ADD MSTORE PUSH32 0x496E76616C69642070726963652066726F6D206F7261636C6500000000000000 PUSH1 0x44 DUP3 ADD MSTORE PUSH1 0x64 ADD PUSH2 0xA3E JUMP JUMPDEST PUSH3 0x15180 PUSH2 0x13D7 DUP3 TIMESTAMP PUSH2 0x2399 JUMP JUMPDEST GT ISZERO PUSH2 0x1418 JUMPI PUSH1 0x40 MLOAD PUSH3 0x461BCD PUSH1 0xE5 SHL DUP2 MSTORE PUSH1 0x20 PUSH1 0x4 DUP3 ADD MSTORE PUSH1 0x10 PUSH1 0x24 DUP3 ADD MSTORE PUSH16 0x50726963652066656564207374616C65 PUSH1 0x80 SHL PUSH1 0x44 DUP3 ADD MSTORE PUSH1 0x64 ADD PUSH2 0xA3E JUMP JUMPDEST POP SWAP2 SWAP1 POP JUMP JUMPDEST PUSH0 SWAP2 DUP3 MSTORE PUSH1 0x6 PUSH1 0x20 SWAP1 DUP2 MSTORE PUSH1 0x40 DUP1 DUP5 KECCAK256 PUSH1 0x1 PUSH1 0x1 PUSH1 0xA0 SHL SUB SWAP4 SWAP1 SWAP4 AND DUP5 MSTORE SWAP2 SWAP1 MSTORE SWAP1 KECCAK256 SLOAD PUSH1 0xFF AND SWAP1 JUMP JUMPDEST PUSH1 0x60 PUSH1 0x4 DUP1 SLOAD PUSH2 0xA9F SWAP1 PUSH2 0x232B JUMP JUMPDEST PUSH0 DUP2 GT PUSH2 0x1476 JUMPI PUSH1 0x40 MLOAD PUSH3 0x461BCD PUSH1 0xE5 SHL DUP2 MSTORE PUSH1 0x4 ADD PUSH2 0xA3E SWAP1 PUSH2 0x235D JUMP JUMPDEST CALLER PUSH0 SWAP1 DUP2 MSTORE PUSH1 0x20 DUP2 SWAP1 MSTORE PUSH1 0x40 SWAP1 KECCAK256 SLOAD DUP2 GT ISZERO PUSH2 0x14CB JUMPI PUSH1 0x40 MLOAD PUSH3 0x461BCD PUSH1 0xE5 SHL DUP2 MSTORE PUSH1 0x20 PUSH1 0x4 DUP3 ADD MSTORE PUSH1 0x14 PUSH1 0x24 DUP3 ADD MSTORE PUSH20 0x496E73756666696369656E742062616C616E6365 PUSH1 0x60 SHL PUSH1 0x44 DUP3 ADD MSTORE PUSH1 0x64 ADD PUSH2 0xA3E JUMP JUMPDEST CALLER PUSH0 SWAP1 DUP2 MSTORE PUSH1 0x9 PUSH1 0x20 MSTORE PUSH1 0x40 SWAP1 KECCAK256 SLOAD ISZERO PUSH2 0x14E8 JUMPI PUSH2 0x14E8 CALLER PUSH2 0x1C82 JUMP JUMPDEST PUSH2 0x14F2 ADDRESS DUP3 PUSH2 0x1583 JUMP JUMPDEST POP CALLER PUSH0 SWAP1 DUP2 MSTORE PUSH1 0x9 PUSH1 0x20 MSTORE PUSH1 0x40 DUP2 KECCAK256 DUP1 SLOAD DUP4 SWAP3 SWAP1 PUSH2 0x1511 SWAP1 DUP5 SWAP1 PUSH2 0x23FD JUMP JUMPDEST SWAP1 SWAP2 SSTORE POP POP CALLER PUSH0 SWAP1 DUP2 MSTORE PUSH1 0x9 PUSH1 0x20 MSTORE PUSH1 0x40 DUP2 KECCAK256 TIMESTAMP PUSH1 0x1 DUP3 ADD DUP2 SWAP1 SSTORE PUSH1 0x2 DUP3 ADD SSTORE PUSH1 0xB SLOAD PUSH1 0x3 SWAP1 SWAP2 ADD SSTORE PUSH1 0xA DUP1 SLOAD DUP4 SWAP3 SWAP1 PUSH2 0x154C SWAP1 DUP5 SWAP1 PUSH2 0x23FD JUMP JUMPDEST SWAP1 SWAP2 SSTORE POP POP PUSH1 0x40 MLOAD DUP2 DUP2 MSTORE CALLER SWAP1 PUSH32 0x9E71BC8EEA02A63969F509818F2DAFB9254532904319F9DBDA79B67BD34A5F3D SWAP1 PUSH1 0x20 ADD PUSH2 0xCD7 JUMP JUMPDEST PUSH0 CALLER PUSH2 0xB2D DUP2 DUP6 DUP6 PUSH2 0x1C25 JUMP JUMPDEST PUSH2 0x12BD CALLER PUSH2 0x1C82 JUMP JUMPDEST PUSH1 0x1 PUSH1 0x1 PUSH1 0xA0 SHL SUB DUP2 AND PUSH0 SWAP1 DUP2 MSTORE PUSH1 0x8 PUSH1 0x20 MSTORE PUSH1 0x40 DUP2 KECCAK256 SLOAD PUSH1 0x7 SLOAD DUP3 SWAP2 PUSH2 0x15BF SWAP2 PUSH2 0x2399 JUMP JUMPDEST SWAP1 POP PUSH8 0xDE0B6B3A7640000 DUP2 PUSH2 0x15E9 DUP6 PUSH1 0x1 PUSH1 0x1 PUSH1 0xA0 SHL SUB AND PUSH0 SWAP1 DUP2 MSTORE PUSH1 0x20 DUP2 SWAP1 MSTORE PUSH1 0x40 SWAP1 KECCAK256 SLOAD SWAP1 JUMP JUMPDEST PUSH2 0x15F3 SWAP2 SWAP1 PUSH2 0x23C7 JUMP JUMPDEST PUSH2 0x15FD SWAP2 SWAP1 PUSH2 0x23DE JUMP JUMPDEST SWAP4 SWAP3 POP POP POP JUMP JUMPDEST PUSH1 0xE DUP1 SLOAD PUSH2 0xB67 SWAP1 PUSH2 0x232B JUMP JUMPDEST PUSH0 DUP3 DUP2 MSTORE PUSH1 0x6 PUSH1 0x20 MSTORE PUSH1 0x40 SWAP1 KECCAK256 PUSH1 0x1 ADD SLOAD PUSH2 0x162B DUP2 PUSH2 0x1B98 JUMP JUMPDEST PUSH2 0xE6E DUP4 DUP4 PUSH2 0x1DD9 JUMP JUMPDEST PUSH1 0x1 PUSH1 0x1 PUSH1 0xA0 SHL SUB DUP2 AND PUSH0 SWAP1 DUP2 MSTORE PUSH1 0xD PUSH1 0x20 SWAP1 DUP2 MSTORE PUSH1 0x40 DUP1 DUP4 KECCAK256 DUP2 MLOAD PUSH1 0xA0 DUP2 ADD DUP4 MSTORE DUP2 SLOAD DUP1 DUP3 MSTORE PUSH1 0x1 DUP4 ADD SLOAD SWAP5 DUP3 ADD SWAP5 SWAP1 SWAP5 MSTORE PUSH1 0x2 DUP3 ADD SLOAD SWAP3 DUP2 ADD SWAP3 SWAP1 SWAP3 MSTORE PUSH1 0x3 DUP2 ADD SLOAD PUSH1 0x60 DUP4 ADD MSTORE PUSH1 0x4 ADD SLOAD PUSH1 0xFF AND ISZERO ISZERO PUSH1 0x80 DUP3 ADD MSTORE SWAP1 DUP3 SUB PUSH2 0x169B JUMPI POP PUSH0 SWAP3 SWAP2 POP POP JUMP JUMPDEST PUSH0 DUP2 PUSH1 0x20 ADD MLOAD TIMESTAMP PUSH2 0x16AC SWAP2 SWAP1 PUSH2 0x2399 JUMP JUMPDEST SWAP1 POP DUP2 PUSH1 0x40 ADD MLOAD DUP2 LT PUSH2 0x16D2 JUMPI PUSH1 0x60 DUP3 ADD MLOAD DUP3 MLOAD PUSH2 0x16CA SWAP2 SWAP1 PUSH2 0x2399 JUMP JUMPDEST SWAP5 SWAP4 POP POP POP POP JUMP JUMPDEST PUSH0 DUP3 PUSH1 0x40 ADD MLOAD DUP3 DUP5 PUSH0 ADD MLOAD PUSH2 0x16E7 SWAP2 SWAP1 PUSH2 0x23C7 JUMP JUMPDEST PUSH2 0x16F1 SWAP2 SWAP1 PUSH2 0x23DE JUMP JUMPDEST SWAP1 POP DUP3 PUSH1 0x60 ADD MLOAD DUP2 PUSH2 0x1703 SWAP2 SWAP1 PUSH2 0x2399 JUMP JUMPDEST SWAP6 SWAP5 POP POP POP POP POP JUMP JUMPDEST PUSH0 PUSH2 0x1716 CALLER PUSH2 0x1635 JUMP JUMPDEST SWAP1 POP PUSH0 DUP2 GT PUSH2 0x175E JUMPI PUSH1 0x40 MLOAD PUSH3 0x461BCD PUSH1 0xE5 SHL DUP2 MSTORE PUSH1 0x20 PUSH1 0x4 DUP3 ADD MSTORE PUSH1 0x14 PUSH1 0x24 DUP3 ADD MSTORE PUSH20 0x139BC81D1BDAD95B9CC81D995CDD1959081E595D PUSH1 0x62 SHL PUSH1 0x44 DUP3 ADD MSTORE PUSH1 0x64 ADD PUSH2 0xA3E JUMP JUMPDEST CALLER PUSH0 SWAP1 DUP2 MSTORE PUSH1 0xD PUSH1 0x20 MSTORE PUSH1 0x40 DUP2 KECCAK256 PUSH1 0x3 ADD DUP1 SLOAD DUP4 SWAP3 SWAP1 PUSH2 0x177F SWAP1 DUP5 SWAP1 PUSH2 0x23FD JUMP JUMPDEST SWAP1 SWAP2 SSTORE POP PUSH2 0x1790 SWAP1 POP ADDRESS CALLER DUP4 PUSH2 0x1C25 JUMP JUMPDEST PUSH1 0x40 MLOAD DUP2 DUP2 MSTORE CALLER SWAP1 PUSH32 0x9FE9B7BE9D151C7A8B6DE49A1312FF27A15096D0D1D12999AF85FE4310E0B125 SWAP1 PUSH1 0x20 ADD PUSH2 0xCD7 JUMP JUMPDEST PUSH0 CALLVALUE GT PUSH2 0x1806 JUMPI PUSH1 0x40 MLOAD PUSH3 0x461BCD PUSH1 0xE5 SHL DUP2 MSTORE PUSH1 0x20 PUSH1 0x4 DUP3 ADD MSTORE PUSH1 0x12 PUSH1 0x24 DUP3 ADD MSTORE PUSH18 0x14D95B9908115512081D1BC81A5B9D995CDD PUSH1 0x72 SHL PUSH1 0x44 DUP3 ADD MSTORE PUSH1 0x64 ADD PUSH2 0xA3E JUMP JUMPDEST PUSH0 PUSH2 0x180F PUSH2 0x12F0 JUMP JUMPDEST SWAP1 POP PUSH0 PUSH4 0x5F5E100 PUSH2 0x1821 DUP4 CALLVALUE PUSH2 0x23C7 JUMP JUMPDEST PUSH2 0x182B SWAP2 SWAP1 PUSH2 0x23DE JUMP JUMPDEST SWAP1 POP PUSH0 PUSH1 0x11 SLOAD PUSH0 SUB PUSH2 0x184F JUMPI PUSH2 0x1848 PUSH7 0x38D7EA4C68000 CALLVALUE PUSH2 0x23DE JUMP JUMPDEST SWAP1 POP PUSH2 0x1871 JUMP JUMPDEST PUSH1 0x11 SLOAD PUSH2 0x1864 DUP4 PUSH8 0xDE0B6B3A7640000 PUSH2 0x23C7 JUMP JUMPDEST PUSH2 0x186E SWAP2 SWAP1 PUSH2 0x23DE JUMP JUMPDEST SWAP1 POP JUMPDEST PUSH0 DUP2 GT PUSH2 0x18B7 JUMPI PUSH1 0x40 MLOAD PUSH3 0x461BCD PUSH1 0xE5 SHL DUP2 MSTORE PUSH1 0x20 PUSH1 0x4 DUP3 ADD MSTORE PUSH1 0x14 PUSH1 0x24 DUP3 ADD MSTORE PUSH20 0x125B9D995CDD1B595B9D081D1BDBC81CDB585B1B PUSH1 0x62 SHL PUSH1 0x44 DUP3 ADD MSTORE PUSH1 0x64 ADD PUSH2 0xA3E JUMP JUMPDEST PUSH2 0x18C1 CALLER DUP3 PUSH2 0x1EC2 JUMP JUMPDEST CALLVALUE PUSH1 0x10 PUSH0 DUP3 DUP3 SLOAD PUSH2 0x18D2 SWAP2 SWAP1 PUSH2 0x23FD JUMP JUMPDEST SWAP1 SWAP2 SSTORE POP POP PUSH1 0x40 MLOAD DUP2 DUP2 MSTORE CALLER SWAP1 PUSH32 0x9E71BC8EEA02A63969F509818F2DAFB9254532904319F9DBDA79B67BD34A5F3D SWAP1 PUSH1 0x20 ADD PUSH1 0x40 MLOAD DUP1 SWAP2 SUB SWAP1 LOG2 POP POP POP JUMP JUMPDEST PUSH1 0x60 PUSH1 0x13 DUP1 SLOAD DUP1 PUSH1 0x20 MUL PUSH1 0x20 ADD PUSH1 0x40 MLOAD SWAP1 DUP2 ADD PUSH1 0x40 MSTORE DUP1 SWAP3 SWAP2 SWAP1 DUP2 DUP2 MSTORE PUSH1 0x20 ADD PUSH0 SWAP1 JUMPDEST DUP3 DUP3 LT ISZERO PUSH2 0x1981 JUMPI DUP4 DUP3 SWAP1 PUSH0 MSTORE PUSH1 0x20 PUSH0 KECCAK256 SWAP1 PUSH1 0x3 MUL ADD PUSH1 0x40 MLOAD DUP1 PUSH1 0x60 ADD PUSH1 0x40 MSTORE SWAP1 DUP2 PUSH0 DUP3 ADD SLOAD DUP2 MSTORE PUSH1 0x20 ADD PUSH1 0x1 DUP3 ADD SLOAD DUP2 MSTORE PUSH1 0x20 ADD PUSH1 0x2 DUP3 ADD SLOAD DUP2 MSTORE POP POP DUP2 MSTORE PUSH1 0x20 ADD SWAP1 PUSH1 0x1 ADD SWAP1 PUSH2 0x1934 JUMP JUMPDEST POP POP POP POP SWAP1 POP SWAP1 JUMP JUMPDEST PUSH2 0x1992 PUSH2 0x1E44 JUMP JUMPDEST PUSH1 0x1 PUSH1 0x1 PUSH1 0xA0 SHL SUB DUP2 AND PUSH2 0x19BB JUMPI PUSH1 0x40 MLOAD PUSH4 0x1E4FBDF7 PUSH1 0xE0 SHL DUP2 MSTORE PUSH0 PUSH1 0x4 DUP3 ADD MSTORE PUSH1 0x24 ADD PUSH2 0xA3E JUMP JUMPDEST PUSH2 0x19C4 DUP2 PUSH2 0x1E71 JUMP JUMPDEST POP JUMP JUMPDEST PUSH32 0xD810F479110C9771EC744414E571D78468B4E92A20F345DF2FFBDC5F927A182E PUSH2 0x19F1 DUP2 PUSH2 0x1B98 JUMP JUMPDEST PUSH1 0x1 PUSH1 0x1 PUSH1 0xA0 SHL SUB DUP6 AND PUSH2 0x1A3D JUMPI PUSH1 0x40 MLOAD PUSH3 0x461BCD PUSH1 0xE5 SHL DUP2 MSTORE PUSH1 0x20 PUSH1 0x4 DUP3 ADD MSTORE PUSH1 0x13 PUSH1 0x24 DUP3 ADD MSTORE PUSH19 0x496E76616C69642062656E6566696369617279 PUSH1 0x68 SHL PUSH1 0x44 DUP3 ADD MSTORE PUSH1 0x64 ADD PUSH2 0xA3E JUMP JUMPDEST PUSH0 DUP5 GT PUSH2 0x1A5C JUMPI PUSH1 0x40 MLOAD PUSH3 0x461BCD PUSH1 0xE5 SHL DUP2 MSTORE PUSH1 0x4 ADD PUSH2 0xA3E SWAP1 PUSH2 0x235D JUMP JUMPDEST PUSH0 DUP4 GT PUSH2 0x1A9E JUMPI PUSH1 0x40 MLOAD PUSH3 0x461BCD PUSH1 0xE5 SHL DUP2 MSTORE PUSH1 0x20 PUSH1 0x4 DUP3 ADD MSTORE PUSH1 0x10 PUSH1 0x24 DUP3 ADD MSTORE PUSH16 0x24B73B30B634B210323AB930BA34B7B7 PUSH1 0x81 SHL PUSH1 0x44 DUP3 ADD MSTORE PUSH1 0x64 ADD PUSH2 0xA3E JUMP JUMPDEST PUSH1 0x40 DUP1 MLOAD PUSH1 0xA0 DUP2 ADD DUP3 MSTORE DUP6 DUP2 MSTORE TIMESTAMP PUSH1 0x20 DUP1 DUP4 ADD SWAP2 DUP3 MSTORE DUP3 DUP5 ADD DUP8 DUP2 MSTORE PUSH0 PUSH1 0x60 DUP6 ADD DUP2 DUP2 MSTORE DUP9 ISZERO ISZERO PUSH1 0x80 DUP8 ADD SWAP1 DUP2 MSTORE PUSH1 0x1 PUSH1 0x1 PUSH1 0xA0 SHL SUB DUP14 AND DUP4 MSTORE PUSH1 0xD SWAP1 SWAP5 MSTORE SWAP6 SWAP1 KECCAK256 SWAP4 MLOAD DUP5 SSTORE SWAP2 MLOAD PUSH1 0x1 DUP5 ADD SSTORE SWAP1 MLOAD PUSH1 0x2 DUP4 ADD SSTORE SWAP2 MLOAD PUSH1 0x3 DUP3 ADD SSTORE SWAP1 MLOAD PUSH1 0x4 SWAP1 SWAP2 ADD DUP1 SLOAD PUSH1 0xFF NOT AND SWAP2 ISZERO ISZERO SWAP2 SWAP1 SWAP2 OR SWAP1 SSTORE PUSH2 0x1B19 ADDRESS DUP6 PUSH2 0x1EC2 JUMP JUMPDEST PUSH1 0x40 DUP1 MLOAD DUP6 DUP2 MSTORE PUSH1 0x20 DUP2 ADD DUP6 SWAP1 MSTORE PUSH1 0x1 PUSH1 0x1 PUSH1 0xA0 SHL SUB DUP8 AND SWAP2 PUSH32 0x402B9FA52520CE724D8E25AD1521F70484BD3C833F98ED26451D7C9666820203 SWAP2 ADD PUSH1 0x40 MLOAD DUP1 SWAP2 SUB SWAP1 LOG2 POP POP POP POP POP JUMP JUMPDEST PUSH0 PUSH1 0x1 PUSH1 0x1 PUSH1 0xE0 SHL SUB NOT DUP3 AND PUSH4 0x7965DB0B PUSH1 0xE0 SHL EQ DUP1 PUSH2 0x9CF JUMPI POP PUSH4 0x1FFC9A7 PUSH1 0xE0 SHL PUSH1 0x1 PUSH1 0x1 PUSH1 0xE0 SHL SUB NOT DUP4 AND EQ PUSH2 0x9CF JUMP JUMPDEST PUSH2 0x19C4 DUP2 CALLER PUSH2 0x1EF6 JUMP JUMPDEST PUSH2 0x113E DUP4 DUP4 DUP4 PUSH1 0x1 PUSH2 0x1F2F JUMP JUMPDEST PUSH1 0x1 PUSH1 0x1 PUSH1 0xA0 SHL SUB DUP4 DUP2 AND PUSH0 SWAP1 DUP2 MSTORE PUSH1 0x1 PUSH1 0x20 SWAP1 DUP2 MSTORE PUSH1 0x40 DUP1 DUP4 KECCAK256 SWAP4 DUP7 AND DUP4 MSTORE SWAP3 SWAP1 MSTORE KECCAK256 SLOAD PUSH0 NOT DUP2 LT ISZERO PUSH2 0xE6E JUMPI DUP2 DUP2 LT ISZERO PUSH2 0x1C17 JUMPI PUSH1 0x40 MLOAD PUSH4 0x7DC7A0D9 PUSH1 0xE1 SHL DUP2 MSTORE PUSH1 0x1 PUSH1 0x1 PUSH1 0xA0 SHL SUB DUP5 AND PUSH1 0x4 DUP3 ADD MSTORE PUSH1 0x24 DUP2 ADD DUP3 SWAP1 MSTORE PUSH1 0x44 DUP2 ADD DUP4 SWAP1 MSTORE PUSH1 0x64 ADD PUSH2 0xA3E JUMP JUMPDEST PUSH2 0xE6E DUP5 DUP5 DUP5 DUP5 SUB PUSH0 PUSH2 0x1F2F JUMP JUMPDEST PUSH1 0x1 PUSH1 0x1 PUSH1 0xA0 SHL SUB DUP4 AND PUSH2 0x1C4E JUMPI PUSH1 0x40 MLOAD PUSH4 0x4B637E8F PUSH1 0xE1 SHL DUP2 MSTORE PUSH0 PUSH1 0x4 DUP3 ADD MSTORE PUSH1 0x24 ADD PUSH2 0xA3E JUMP JUMPDEST PUSH1 0x1 PUSH1 0x1 PUSH1 0xA0 SHL SUB DUP3 AND PUSH2 0x1C77 JUMPI PUSH1 0x40 MLOAD PUSH4 0xEC442F05 PUSH1 0xE0 SHL DUP2 MSTORE PUSH0 PUSH1 0x4 DUP3 ADD MSTORE PUSH1 0x24 ADD PUSH2 0xA3E JUMP JUMPDEST PUSH2 0x113E DUP4 DUP4 DUP4 PUSH2 0x2001 JUMP JUMPDEST PUSH1 0x1 PUSH1 0x1 PUSH1 0xA0 SHL SUB DUP2 AND PUSH0 SWAP1 DUP2 MSTORE PUSH1 0x9 PUSH1 0x20 MSTORE PUSH1 0x40 DUP2 KECCAK256 DUP1 SLOAD SWAP1 SWAP2 SUB PUSH2 0x1CA6 JUMPI POP POP JUMP JUMPDEST PUSH0 DUP2 PUSH1 0x2 ADD SLOAD TIMESTAMP PUSH2 0x1CB7 SWAP2 SWAP1 PUSH2 0x2399 JUMP JUMPDEST SWAP1 POP PUSH0 PUSH5 0x496CEBB800 DUP3 PUSH1 0xC SLOAD DUP6 PUSH0 ADD SLOAD PUSH2 0x1CD2 SWAP2 SWAP1 PUSH2 0x23C7 JUMP JUMPDEST PUSH2 0x1CDC SWAP2 SWAP1 PUSH2 0x23C7 JUMP JUMPDEST PUSH2 0x1CE6 SWAP2 SWAP1 PUSH2 0x23DE JUMP JUMPDEST SWAP1 POP DUP1 ISZERO PUSH2 0x1D3C JUMPI PUSH2 0x1CF8 DUP5 DUP3 PUSH2 0x1EC2 JUMP JUMPDEST DUP4 PUSH1 0x1 PUSH1 0x1 PUSH1 0xA0 SHL SUB AND PUSH32 0x6DD401E61BA732582A5EBA3D54CCC3AFB3609CD3AC1A166D1D36F75FC0AEDCDA DUP3 PUSH1 0x40 MLOAD PUSH2 0x1D33 SWAP2 DUP2 MSTORE PUSH1 0x20 ADD SWAP1 JUMP JUMPDEST PUSH1 0x40 MLOAD DUP1 SWAP2 SUB SWAP1 LOG2 JUMPDEST POP POP TIMESTAMP PUSH1 0x2 SWAP1 SWAP2 ADD SSTORE POP JUMP JUMPDEST PUSH0 PUSH2 0x1D53 DUP4 DUP4 PUSH2 0x141E JUMP JUMPDEST PUSH2 0x1DD2 JUMPI PUSH0 DUP4 DUP2 MSTORE PUSH1 0x6 PUSH1 0x20 SWAP1 DUP2 MSTORE PUSH1 0x40 DUP1 DUP4 KECCAK256 PUSH1 0x1 PUSH1 0x1 PUSH1 0xA0 SHL SUB DUP7 AND DUP5 MSTORE SWAP1 SWAP2 MSTORE SWAP1 KECCAK256 DUP1 SLOAD PUSH1 0xFF NOT AND PUSH1 0x1 OR SWAP1 SSTORE PUSH2 0x1D8A CALLER SWAP1 JUMP JUMPDEST PUSH1 0x1 PUSH1 0x1 PUSH1 0xA0 SHL SUB AND DUP3 PUSH1 0x1 PUSH1 0x1 PUSH1 0xA0 SHL SUB AND DUP5 PUSH32 0x2F8788117E7EFF1D82E926EC794901D17C78024A50270940304540A733656F0D PUSH1 0x40 MLOAD PUSH1 0x40 MLOAD DUP1 SWAP2 SUB SWAP1 LOG4 POP PUSH1 0x1 PUSH2 0x9CF JUMP JUMPDEST POP PUSH0 PUSH2 0x9CF JUMP JUMPDEST PUSH0 PUSH2 0x1DE4 DUP4 DUP4 PUSH2 0x141E JUMP JUMPDEST ISZERO PUSH2 0x1DD2 JUMPI PUSH0 DUP4 DUP2 MSTORE PUSH1 0x6 PUSH1 0x20 SWAP1 DUP2 MSTORE PUSH1 0x40 DUP1 DUP4 KECCAK256 PUSH1 0x1 PUSH1 0x1 PUSH1 0xA0 SHL SUB DUP7 AND DUP1 DUP6 MSTORE SWAP3 MSTORE DUP1 DUP4 KECCAK256 DUP1 SLOAD PUSH1 0xFF NOT AND SWAP1 SSTORE MLOAD CALLER SWAP3 DUP7 SWAP2 PUSH32 0xF6391F5C32D9C69D2A47EA670B442974B53935D1EDC7FD64EB21E047A839171B SWAP2 SWAP1 LOG4 POP PUSH1 0x1 PUSH2 0x9CF JUMP JUMPDEST PUSH1 0x5 SLOAD PUSH1 0x1 PUSH1 0x1 PUSH1 0xA0 SHL SUB AND CALLER EQ PUSH2 0x12BD JUMPI PUSH1 0x40 MLOAD PUSH4 0x118CDAA7 PUSH1 0xE0 SHL DUP2 MSTORE CALLER PUSH1 0x4 DUP3 ADD MSTORE PUSH1 0x24 ADD PUSH2 0xA3E JUMP JUMPDEST PUSH1 0x5 DUP1 SLOAD PUSH1 0x1 PUSH1 0x1 PUSH1 0xA0 SHL SUB DUP4 DUP2 AND PUSH1 0x1 PUSH1 0x1 PUSH1 0xA0 SHL SUB NOT DUP4 AND DUP2 OR SWAP1 SWAP4 SSTORE PUSH1 0x40 MLOAD SWAP2 AND SWAP2 SWAP1 DUP3 SWAP1 PUSH32 0x8BE0079C531659141344CD1FD0A4F28419497F9722A3DAAFE3B4186F6B6457E0 SWAP1 PUSH0 SWAP1 LOG3 POP POP JUMP JUMPDEST PUSH1 0x1 PUSH1 0x1 PUSH1 0xA0 SHL SUB DUP3 AND PUSH2 0x1EEB JUMPI PUSH1 0x40 MLOAD PUSH4 0xEC442F05 PUSH1 0xE0 SHL DUP2 MSTORE PUSH0 PUSH1 0x4 DUP3 ADD MSTORE PUSH1 0x24 ADD PUSH2 0xA3E JUMP JUMPDEST PUSH2 0x12A8 PUSH0 DUP4 DUP4 PUSH2 0x2001 JUMP JUMPDEST PUSH2 0x1F00 DUP3 DUP3 PUSH2 0x141E JUMP JUMPDEST PUSH2 0x12A8 JUMPI PUSH1 0x40 MLOAD PUSH4 0xE2517D3F PUSH1 0xE0 SHL DUP2 MSTORE PUSH1 0x1 PUSH1 0x1 PUSH1 0xA0 SHL SUB DUP3 AND PUSH1 0x4 DUP3 ADD MSTORE PUSH1 0x24 DUP2 ADD DUP4 SWAP1 MSTORE PUSH1 0x44 ADD PUSH2 0xA3E JUMP JUMPDEST PUSH1 0x1 PUSH1 0x1 PUSH1 0xA0 SHL SUB DUP5 AND PUSH2 0x1F58 JUMPI PUSH1 0x40 MLOAD PUSH4 0xE602DF05 PUSH1 0xE0 SHL DUP2 MSTORE PUSH0 PUSH1 0x4 DUP3 ADD MSTORE PUSH1 0x24 ADD PUSH2 0xA3E JUMP JUMPDEST PUSH1 0x1 PUSH1 0x1 PUSH1 0xA0 SHL SUB DUP4 AND PUSH2 0x1F81 JUMPI PUSH1 0x40 MLOAD PUSH4 0x4A1406B1 PUSH1 0xE1 SHL DUP2 MSTORE PUSH0 PUSH1 0x4 DUP3 ADD MSTORE PUSH1 0x24 ADD PUSH2 0xA3E JUMP JUMPDEST PUSH1 0x1 PUSH1 0x1 PUSH1 0xA0 SHL SUB DUP1 DUP6 AND PUSH0 SWAP1 DUP2 MSTORE PUSH1 0x1 PUSH1 0x20 SWAP1 DUP2 MSTORE PUSH1 0x40 DUP1 DUP4 KECCAK256 SWAP4 DUP8 AND DUP4 MSTORE SWAP3 SWAP1 MSTORE KECCAK256 DUP3 SWAP1 SSTORE DUP1 ISZERO PUSH2 0xE6E JUMPI DUP3 PUSH1 0x1 PUSH1 0x1 PUSH1 0xA0 SHL SUB AND DUP5 PUSH1 0x1 PUSH1 0x1 PUSH1 0xA0 SHL SUB AND PUSH32 0x8C5BE1E5EBEC7D5BD14F71427D1E84F3DD0314C0F7B2291E5B200AC8C7C3B925 DUP5 PUSH1 0x40 MLOAD PUSH2 0x1FF3 SWAP2 DUP2 MSTORE PUSH1 0x20 ADD SWAP1 JUMP JUMPDEST PUSH1 0x40 MLOAD DUP1 SWAP2 SUB SWAP1 LOG3 POP POP POP POP JUMP JUMPDEST PUSH1 0x1 PUSH1 0x1 PUSH1 0xA0 SHL SUB DUP4 AND PUSH2 0x202B JUMPI DUP1 PUSH1 0x2 PUSH0 DUP3 DUP3 SLOAD PUSH2 0x2020 SWAP2 SWAP1 PUSH2 0x23FD JUMP JUMPDEST SWAP1 SWAP2 SSTORE POP PUSH2 0x209B SWAP1 POP JUMP JUMPDEST PUSH1 0x1 PUSH1 0x1 PUSH1 0xA0 SHL SUB DUP4 AND PUSH0 SWAP1 DUP2 MSTORE PUSH1 0x20 DUP2 SWAP1 MSTORE PUSH1 0x40 SWAP1 KECCAK256 SLOAD DUP2 DUP2 LT ISZERO PUSH2 0x207D JUMPI PUSH1 0x40 MLOAD PUSH4 0x391434E3 PUSH1 0xE2 SHL DUP2 MSTORE PUSH1 0x1 PUSH1 0x1 PUSH1 0xA0 SHL SUB DUP6 AND PUSH1 0x4 DUP3 ADD MSTORE PUSH1 0x24 DUP2 ADD DUP3 SWAP1 MSTORE PUSH1 0x44 DUP2 ADD DUP4 SWAP1 MSTORE PUSH1 0x64 ADD PUSH2 0xA3E JUMP JUMPDEST PUSH1 0x1 PUSH1 0x1 PUSH1 0xA0 SHL SUB DUP5 AND PUSH0 SWAP1 DUP2 MSTORE PUSH1 0x20 DUP2 SWAP1 MSTORE PUSH1 0x40 SWAP1 KECCAK256 SWAP1 DUP3 SWAP1 SUB SWAP1 SSTORE JUMPDEST PUSH1 0x1 PUSH1 0x1 PUSH1 0xA0 SHL SUB DUP3 AND PUSH2 0x20B7 JUMPI PUSH1 0x2 DUP1 SLOAD DUP3 SWAP1 SUB SWAP1 SSTORE PUSH2 0x20D5 JUMP JUMPDEST PUSH1 0x1 PUSH1 0x1 PUSH1 0xA0 SHL SUB DUP3 AND PUSH0 SWAP1 DUP2 MSTORE PUSH1 0x20 DUP2 SWAP1 MSTORE PUSH1 0x40 SWAP1 KECCAK256 DUP1 SLOAD DUP3 ADD SWAP1 SSTORE JUMPDEST DUP2 PUSH1 0x1 PUSH1 0x1 PUSH1 0xA0 SHL SUB AND DUP4 PUSH1 0x1 PUSH1 0x1 PUSH1 0xA0 SHL SUB AND PUSH32 0xDDF252AD1BE2C89B69C2B068FC378DAA952BA7F163C4A11628F55A4DF523B3EF DUP4 PUSH1 0x40 MLOAD PUSH2 0x211A SWAP2 DUP2 MSTORE PUSH1 0x20 ADD SWAP1 JUMP JUMPDEST PUSH1 0x40 MLOAD DUP1 SWAP2 SUB SWAP1 LOG3 POP POP POP JUMP JUMPDEST PUSH0 PUSH1 0x20 DUP3 DUP5 SUB SLT ISZERO PUSH2 0x2137 JUMPI PUSH0 DUP1 REVERT JUMPDEST DUP2 CALLDATALOAD PUSH1 0x1 PUSH1 0x1 PUSH1 0xE0 SHL SUB NOT DUP2 AND DUP2 EQ PUSH2 0x15FD JUMPI PUSH0 DUP1 REVERT JUMPDEST PUSH0 PUSH1 0x20 DUP3 DUP5 SUB SLT ISZERO PUSH2 0x215E JUMPI PUSH0 DUP1 REVERT JUMPDEST POP CALLDATALOAD SWAP2 SWAP1 POP JUMP JUMPDEST PUSH1 0x20 DUP2 MSTORE PUSH0 DUP3 MLOAD DUP1 PUSH1 0x20 DUP5 ADD MSTORE DUP1 PUSH1 0x20 DUP6 ADD PUSH1 0x40 DUP6 ADD MCOPY PUSH0 PUSH1 0x40 DUP3 DUP6 ADD ADD MSTORE PUSH1 0x40 PUSH1 0x1F NOT PUSH1 0x1F DUP4 ADD AND DUP5 ADD ADD SWAP2 POP POP SWAP3 SWAP2 POP POP JUMP JUMPDEST DUP1 CALLDATALOAD PUSH1 0x1 PUSH1 0x1 PUSH1 0xA0 SHL SUB DUP2 AND DUP2 EQ PUSH2 0x21B0 JUMPI PUSH0 DUP1 REVERT JUMPDEST SWAP2 SWAP1 POP JUMP JUMPDEST PUSH0 DUP1 PUSH1 0x40 DUP4 DUP6 SUB SLT ISZERO PUSH2 0x21C6 JUMPI PUSH0 DUP1 REVERT JUMPDEST PUSH2 0x21CF DUP4 PUSH2 0x219A JUMP JUMPDEST SWAP5 PUSH1 0x20 SWAP4 SWAP1 SWAP4 ADD CALLDATALOAD SWAP4 POP POP POP JUMP JUMPDEST PUSH0 DUP1 PUSH0 PUSH1 0x60 DUP5 DUP7 SUB SLT ISZERO PUSH2 0x21EF JUMPI PUSH0 DUP1 REVERT JUMPDEST PUSH2 0x21F8 DUP5 PUSH2 0x219A JUMP JUMPDEST SWAP3 POP PUSH2 0x2206 PUSH1 0x20 DUP6 ADD PUSH2 0x219A JUMP JUMPDEST SWAP2 POP PUSH1 0x40 DUP5 ADD CALLDATALOAD SWAP1 POP SWAP3 POP SWAP3 POP SWAP3 JUMP JUMPDEST PUSH0 DUP1 PUSH1 0x40 DUP4 DUP6 SUB SLT ISZERO PUSH2 0x2227 JUMPI PUSH0 DUP1 REVERT JUMPDEST DUP3 CALLDATALOAD SWAP2 POP PUSH2 0x2237 PUSH1 0x20 DUP5 ADD PUSH2 0x219A JUMP JUMPDEST SWAP1 POP SWAP3 POP SWAP3 SWAP1 POP JUMP JUMPDEST PUSH0 PUSH1 0x20 DUP3 DUP5 SUB SLT ISZERO PUSH2 0x2250 JUMPI PUSH0 DUP1 REVERT JUMPDEST PUSH2 0x15FD DUP3 PUSH2 0x219A JUMP JUMPDEST PUSH0 DUP1 PUSH1 0x40 DUP4 DUP6 SUB SLT ISZERO PUSH2 0x226A JUMPI PUSH0 DUP1 REVERT JUMPDEST PUSH2 0x2273 DUP4 PUSH2 0x219A JUMP JUMPDEST SWAP2 POP PUSH2 0x2237 PUSH1 0x20 DUP5 ADD PUSH2 0x219A JUMP JUMPDEST PUSH1 0x20 DUP1 DUP3 MSTORE DUP3 MLOAD DUP3 DUP3 ADD DUP2 SWAP1 MSTORE PUSH0 SWAP2 SWAP1 PUSH1 0x40 SWAP1 DUP2 DUP6 ADD SWAP1 DUP7 DUP5 ADD DUP6 JUMPDEST DUP3 DUP2 LT ISZERO PUSH2 0x22CC JUMPI DUP2 MLOAD DUP1 MLOAD DUP6 MSTORE DUP7 DUP2 ADD MLOAD DUP8 DUP7 ADD MSTORE DUP6 ADD MLOAD DUP6 DUP6 ADD MSTORE PUSH1 0x60 SWAP1 SWAP4 ADD SWAP3 SWAP1 DUP6 ADD SWAP1 PUSH1 0x1 ADD PUSH2 0x229D JUMP JUMPDEST POP SWAP2 SWAP8 SWAP7 POP POP POP POP POP POP POP JUMP JUMPDEST DUP1 ISZERO ISZERO DUP2 EQ PUSH2 0x19C4 JUMPI PUSH0 DUP1 REVERT JUMPDEST PUSH0 DUP1 PUSH0 DUP1 PUSH1 0x80 DUP6 DUP8 SUB SLT ISZERO PUSH2 0x22F9 JUMPI PUSH0 DUP1 REVERT JUMPDEST PUSH2 0x2302 DUP6 PUSH2 0x219A JUMP JUMPDEST SWAP4 POP PUSH1 0x20 DUP6 ADD CALLDATALOAD SWAP3 POP PUSH1 0x40 DUP6 ADD CALLDATALOAD SWAP2 POP PUSH1 0x60 DUP6 ADD CALLDATALOAD PUSH2 0x2320 DUP2 PUSH2 0x22D9 JUMP JUMPDEST SWAP4 SWAP7 SWAP3 SWAP6 POP SWAP1 SWAP4 POP POP JUMP JUMPDEST PUSH1 0x1 DUP2 DUP2 SHR SWAP1 DUP3 AND DUP1 PUSH2 0x233F JUMPI PUSH1 0x7F DUP3 AND SWAP2 POP JUMPDEST PUSH1 0x20 DUP3 LT DUP2 SUB PUSH2 0x1418 JUMPI PUSH4 0x4E487B71 PUSH1 0xE0 SHL PUSH0 MSTORE PUSH1 0x22 PUSH1 0x4 MSTORE PUSH1 0x24 PUSH0 REVERT JUMPDEST PUSH1 0x20 DUP1 DUP3 MSTORE PUSH1 0xE SWAP1 DUP3 ADD MSTORE PUSH14 0x125B9D985B1A5908185B5BDD5B9D PUSH1 0x92 SHL PUSH1 0x40 DUP3 ADD MSTORE PUSH1 0x60 ADD SWAP1 JUMP JUMPDEST PUSH4 0x4E487B71 PUSH1 0xE0 SHL PUSH0 MSTORE PUSH1 0x11 PUSH1 0x4 MSTORE PUSH1 0x24 PUSH0 REVERT JUMPDEST DUP2 DUP2 SUB DUP2 DUP2 GT ISZERO PUSH2 0x9CF JUMPI PUSH2 0x9CF PUSH2 0x2385 JUMP JUMPDEST PUSH0 PUSH1 0x20 DUP3 DUP5 SUB SLT ISZERO PUSH2 0x23BC JUMPI PUSH0 DUP1 REVERT JUMPDEST DUP2 MLOAD PUSH2 0x15FD DUP2 PUSH2 0x22D9 JUMP JUMPDEST DUP1 DUP3 MUL DUP2 ISZERO DUP3 DUP3 DIV DUP5 EQ OR PUSH2 0x9CF JUMPI PUSH2 0x9CF PUSH2 0x2385 JUMP JUMPDEST PUSH0 DUP3 PUSH2 0x23F8 JUMPI PUSH4 0x4E487B71 PUSH1 0xE0 SHL PUSH0 MSTORE PUSH1 0x12 PUSH1 0x4 MSTORE PUSH1 0x24 PUSH0 REVERT JUMPDEST POP DIV SWAP1 JUMP JUMPDEST DUP1 DUP3 ADD DUP1 DUP3 GT ISZERO PUSH2 0x9CF JUMPI PUSH2 0x9CF PUSH2 0x2385 JUMP JUMPDEST PUSH0 PUSH1 0x20 DUP3 DUP5 SUB SLT ISZERO PUSH2 0x2420 JUMPI PUSH0 DUP1 REVERT JUMPDEST POP MLOAD SWAP2 SWAP1 POP JUMP JUMPDEST DUP1 MLOAD PUSH10 0xFFFFFFFFFFFFFFFFFFFF DUP2 AND DUP2 EQ PUSH2 0x21B0 JUMPI PUSH0 DUP1 REVERT JUMPDEST PUSH0 DUP1 PUSH0 DUP1 PUSH0 PUSH1 0xA0 DUP7 DUP9 SUB SLT ISZERO PUSH2 0x2454 JUMPI PUSH0 DUP1 REVERT JUMPDEST PUSH2 0x245D DUP7 PUSH2 0x2427 JUMP JUMPDEST SWAP5 POP PUSH1 0x20 DUP7 ADD MLOAD SWAP4 POP PUSH1 0x40 DUP7 ADD MLOAD SWAP3 POP PUSH1 0x60 DUP7 ADD MLOAD SWAP2 POP PUSH2 0x2480 PUSH1 0x80 DUP8 ADD PUSH2 0x2427 JUMP JUMPDEST SWAP1 POP SWAP3 SWAP6 POP SWAP3 SWAP6 SWAP1 SWAP4 POP JUMP INVALID LOG2 PUSH5 0x6970667358 0x22 SLT KECCAK256 PC PUSH18 0x879ABB73821EFA62E1FCB7A5C95F46DDA53 PUSH29 0x1606FB6FCFADD297AD9D7B64736F6C6343000819003300000000000000 "
        },
        "methodIdentifiers": {
          "DEFAULT_ADMIN_ROLE()": "a217fddf",
          "VESTING_MANAGER_ROLE()": "b8664dca",
          "YIELD_MANAGER_ROLE()": "fe9e9640",
          "allowance(address,address)": "dd62ed3e",
          "approve(address,uint256)": "095ea7b3",
          "assetCategory()": "2c26d8ee",
          "assetName()": "c9230c5d",
          "assetValuation()": "406dd96b",
          "balanceOf(address)": "70a08231",
          "claimStakingReward()": "afc695ce",
          "claimVestedTokens()": "e74f3fbb",
          "createVestingSchedule(address,uint256,uint256,bool)": "fbadf195",
          "decimals()": "313ce567",
          "distributeDividends(uint256)": "3243c791",
          "dividendHistory(uint256)": "7e9cae0e",
          "dividendPerShare()": "1c763596",
          "emergencyWithdraw(address)": "6ff1c9bc",
          "getDividendHistory()": "e9ce131d",
          "getDividendHistoryLength()": "7783a4a8",
          "getLatestPrice()": "8e15f473",
          "getRoleAdmin(bytes32)": "248a9ca3",
          "getVestedAmount(address)": "d5a73fdd",
          "grantRole(bytes32,address)": "2f2ff15d",
          "hasRole(bytes32,address)": "91d14854",
          "invest()": "e8b5e51f",
          "lastValuationUpdate()": "260bbb4a",
          "name()": "06fdde03",
          "owner()": "8da5cb5b",
          "pendingDividends(address)": "c7926458",
          "priceFeed()": "741bef1a",
          "renounceOwnership()": "715018a6",
          "renounceRole(bytes32,address)": "36568abe",
          "revokeRole(bytes32,address)": "d547741f",
          "stablecoin()": "e9cbd822",
          "stake(uint256)": "a694fc3a",
          "stakingAPY()": "1531b62a",
          "stakingInfo(address)": "94eecb50",
          "stakingRewardPerShare()": "9dee9376",
          "supportsInterface(bytes4)": "01ffc9a7",
          "symbol()": "95d89b41",
          "totalInvestment()": "10ea13df",
          "totalStaked()": "817b1cd2",
          "totalSupply()": "18160ddd",
          "transfer(address,uint256)": "a9059cbb",
          "transferFrom(address,address,uint256)": "23b872dd",
          "transferOwnership(address)": "f2fde38b",
          "unstake(uint256)": "2e17de78",
          "updateAssetValuation(uint256)": "03483536",
          "vestingSchedules(address)": "fdb20ccb",
          "withdrawDividends()": "2e92abdd",
          "withdrawnDividends(address)": "de3aaf61"
        }
      },
      "storageLayout": {
        "storage": [
          {
            "astId": 732,
            "contract": "contracts/NeemOSCapitalV2.sol:NeemOSCapitalV2",
            "label": "_balances",
            "offset": 0,
            "slot": "0",
            "type": "t_mapping(t_address,t_uint256)"
          },
          {
            "astId": 738,
            "contract": "contracts/NeemOSCapitalV2.sol:NeemOSCapitalV2",
            "label": "_allowances",
            "offset": 0,
            "slot": "1",
            "type": "t_mapping(t_address,t_mapping(t_address,t_uint256))"
          },
          {
            "astId": 740,
            "contract": "contracts/NeemOSCapitalV2.sol:NeemOSCapitalV2",
            "label": "_totalSupply",
            "offset": 0,
            "slot": "2",
            "type": "t_uint256"
          },
          {
            "astId": 742,
            "contract": "contracts/NeemOSCapitalV2.sol:NeemOSCapitalV2",
            "label": "_name",
            "offset": 0,
            "slot": "3",
            "type": "t_string_storage"
          },
          {
            "astId": 744,
            "contract": "contracts/NeemOSCapitalV2.sol:NeemOSCapitalV2",
            "label": "_symbol",
            "offset": 0,
            "slot": "4",
            "type": "t_string_storage"
          },
          {
            "astId": 433,
            "contract": "contracts/NeemOSCapitalV2.sol:NeemOSCapitalV2",
            "label": "_owner",
            "offset": 0,
            "slot": "5",
            "type": "t_address"
          },
          {
            "astId": 72,
            "contract": "contracts/NeemOSCapitalV2.sol:NeemOSCapitalV2",
            "label": "_roles",
            "offset": 0,
            "slot": "6",
            "type": "t_mapping(t_bytes32,t_struct(RoleData)67_storage)"
          },
          {
            "astId": 1426,
            "contract": "contracts/NeemOSCapitalV2.sol:NeemOSCapitalV2",
            "label": "dividendPerShare",
            "offset": 0,
            "slot": "7",
            "type": "t_uint256"
          },
          {
            "astId": 1430,
            "contract": "contracts/NeemOSCapitalV2.sol:NeemOSCapitalV2",
            "label": "withdrawnDividends",
            "offset": 0,
            "slot": "8",
            "type": "t_mapping(t_address,t_uint256)"
          },
          {
            "astId": 1444,
            "contract": "contracts/NeemOSCapitalV2.sol:NeemOSCapitalV2",
            "label": "stakingInfo",
            "offset": 0,
            "slot": "9",
            "type": "t_mapping(t_address,t_struct(StakingInfo)1439_storage)"
          },
          {
            "astId": 1446,
            "contract": "contracts/NeemOSCapitalV2.sol:NeemOSCapitalV2",
            "label": "totalStaked",
            "offset": 0,
            "slot": "10",
            "type": "t_uint256"
          },
          {
            "astId": 1448,
            "contract": "contracts/NeemOSCapitalV2.sol:NeemOSCapitalV2",
            "label": "stakingRewardPerShare",
            "offset": 0,
            "slot": "11",
            "type": "t_uint256"
          },
          {
            "astId": 1451,
            "contract": "contracts/NeemOSCapitalV2.sol:NeemOSCapitalV2",
            "label": "stakingAPY",
            "offset": 0,
            "slot": "12",
            "type": "t_uint256"
          },
          {
            "astId": 1467,
            "contract": "contracts/NeemOSCapitalV2.sol:NeemOSCapitalV2",
            "label": "vestingSchedules",
            "offset": 0,
            "slot": "13",
            "type": "t_mapping(t_address,t_struct(VestingSchedule)1462_storage)"
          },
          {
            "astId": 1469,
            "contract": "contracts/NeemOSCapitalV2.sol:NeemOSCapitalV2",
            "label": "assetName",
            "offset": 0,
            "slot": "14",
            "type": "t_string_storage"
          },
          {
            "astId": 1471,
            "contract": "contracts/NeemOSCapitalV2.sol:NeemOSCapitalV2",
            "label": "assetCategory",
            "offset": 0,
            "slot": "15",
            "type": "t_string_storage"
          },
          {
            "astId": 1473,
            "contract": "contracts/NeemOSCapitalV2.sol:NeemOSCapitalV2",
            "label": "totalInvestment",
            "offset": 0,
            "slot": "16",
            "type": "t_uint256"
          },
          {
            "astId": 1475,
            "contract": "contracts/NeemOSCapitalV2.sol:NeemOSCapitalV2",
            "label": "assetValuation",
            "offset": 0,
            "slot": "17",
            "type": "t_uint256"
          },
          {
            "astId": 1477,
            "contract": "contracts/NeemOSCapitalV2.sol:NeemOSCapitalV2",
            "label": "lastValuationUpdate",
            "offset": 0,
            "slot": "18",
            "type": "t_uint256"
          },
          {
            "astId": 1488,
            "contract": "contracts/NeemOSCapitalV2.sol:NeemOSCapitalV2",
            "label": "dividendHistory",
            "offset": 0,
            "slot": "19",
            "type": "t_array(t_struct(DividendRecord)1484_storage)dyn_storage"
          }
        ],
        "types": {
          "t_address": {
            "encoding": "inplace",
            "label": "address",
            "numberOfBytes": "20"
          },
          "t_array(t_struct(DividendRecord)1484_storage)dyn_storage": {
            "base": "t_struct(DividendRecord)1484_storage",
            "encoding": "dynamic_array",
            "label": "struct NeemOSCapitalV2.DividendRecord[]",
            "numberOfBytes": "32"
          },
          "t_bool": {
            "encoding": "inplace",
            "label": "bool",
            "numberOfBytes": "1"
          },
          "t_bytes32": {
            "encoding": "inplace",
            "label": "bytes32",
            "numberOfBytes": "32"
          },
          "t_mapping(t_address,t_bool)": {
            "encoding": "mapping",
            "key": "t_address",
            "label": "mapping(address => bool)",
            "numberOfBytes": "32",
            "value": "t_bool"
          },
          "t_mapping(t_address,t_mapping(t_address,t_uint256))": {
            "encoding": "mapping",
            "key": "t_address",
            "label": "mapping(address => mapping(address => uint256))",
            "numberOfBytes": "32",
            "value": "t_mapping(t_address,t_uint256)"
          },
          "t_mapping(t_address,t_struct(StakingInfo)1439_storage)": {
            "encoding": "mapping",
            "key": "t_address",
            "label": "mapping(address => struct NeemOSCapitalV2.StakingInfo)",
            "numberOfBytes": "32",
            "value": "t_struct(StakingInfo)1439_storage"
          },
          "t_mapping(t_address,t_struct(VestingSchedule)1462_storage)": {
            "encoding": "mapping",
            "key": "t_address",
            "label": "mapping(address => struct NeemOSCapitalV2.VestingSchedule)",
            "numberOfBytes": "32",
            "value": "t_struct(VestingSchedule)1462_storage"
          },
          "t_mapping(t_address,t_uint256)": {
            "encoding": "mapping",
            "key": "t_address",
            "label": "mapping(address => uint256)",
            "numberOfBytes": "32",
            "value": "t_uint256"
          },
          "t_mapping(t_bytes32,t_struct(RoleData)67_storage)": {
            "encoding": "mapping",
            "key": "t_bytes32",
            "label": "mapping(bytes32 => struct AccessControl.RoleData)",
            "numberOfBytes": "32",
            "value": "t_struct(RoleData)67_storage"
          },
          "t_string_storage": {
            "encoding": "bytes",
            "label": "string",
            "numberOfBytes": "32"
          },
          "t_struct(DividendRecord)1484_storage": {
            "encoding": "inplace",
            "label": "struct NeemOSCapitalV2.DividendRecord",
            "members": [
              {
                "astId": 1479,
                "contract": "contracts/NeemOSCapitalV2.sol:NeemOSCapitalV2",
                "label": "timestamp",
                "offset": 0,
                "slot": "0",
                "type": "t_uint256"
              },
              {
                "astId": 1481,
                "contract": "contracts/NeemOSCapitalV2.sol:NeemOSCapitalV2",
                "label": "amount",
                "offset": 0,
                "slot": "1",
                "type": "t_uint256"
              },
              {
                "astId": 1483,
                "contract": "contracts/NeemOSCapitalV2.sol:NeemOSCapitalV2",
                "label": "usdPrice",
                "offset": 0,
                "slot": "2",
                "type": "t_uint256"
              }
            ],
            "numberOfBytes": "96"
          },
          "t_struct(RoleData)67_storage": {
            "encoding": "inplace",
            "label": "struct AccessControl.RoleData",
            "members": [
              {
                "astId": 64,
                "contract": "contracts/NeemOSCapitalV2.sol:NeemOSCapitalV2",
                "label": "hasRole",
                "offset": 0,
                "slot": "0",
                "type": "t_mapping(t_address,t_bool)"
              },
              {
                "astId": 66,
                "contract": "contracts/NeemOSCapitalV2.sol:NeemOSCapitalV2",
                "label": "adminRole",
                "offset": 0,
                "slot": "1",
                "type": "t_bytes32"
              }
            ],
            "numberOfBytes": "64"
          },
          "t_struct(StakingInfo)1439_storage": {
            "encoding": "inplace",
            "label": "struct NeemOSCapitalV2.StakingInfo",
            "members": [
              {
                "astId": 1432,
                "contract": "contracts/NeemOSCapitalV2.sol:NeemOSCapitalV2",
                "label": "stakedAmount",
                "offset": 0,
                "slot": "0",
                "type": "t_uint256"
              },
              {
                "astId": 1434,
                "contract": "contracts/NeemOSCapitalV2.sol:NeemOSCapitalV2",
                "label": "stakingStartTime",
                "offset": 0,
                "slot": "1",
                "type": "t_uint256"
              },
              {
                "astId": 1436,
                "contract": "contracts/NeemOSCapitalV2.sol:NeemOSCapitalV2",
                "label": "lastRewardTime",
                "offset": 0,
                "slot": "2",
                "type": "t_uint256"
              },
              {
                "astId": 1438,
                "contract": "contracts/NeemOSCapitalV2.sol:NeemOSCapitalV2",
                "label": "rewardDebtPerShare",
                "offset": 0,
                "slot": "3",
                "type": "t_uint256"
              }
            ],
            "numberOfBytes": "128"
          },
          "t_struct(VestingSchedule)1462_storage": {
            "encoding": "inplace",
            "label": "struct NeemOSCapitalV2.VestingSchedule",
            "members": [
              {
                "astId": 1453,
                "contract": "contracts/NeemOSCapitalV2.sol:NeemOSCapitalV2",
                "label": "totalAmount",
                "offset": 0,
                "slot": "0",
                "type": "t_uint256"
              },
              {
                "astId": 1455,
                "contract": "contracts/NeemOSCapitalV2.sol:NeemOSCapitalV2",
                "label": "startTime",
                "offset": 0,
                "slot": "1",
                "type": "t_uint256"
              },
              {
                "astId": 1457,
                "contract": "contracts/NeemOSCapitalV2.sol:NeemOSCapitalV2",
                "label": "duration",
                "offset": 0,
                "slot": "2",
                "type": "t_uint256"
              },
              {
                "astId": 1459,
                "contract": "contracts/NeemOSCapitalV2.sol:NeemOSCapitalV2",
                "label": "claimed",
                "offset": 0,
                "slot": "3",
                "type": "t_uint256"
              },
              {
                "astId": 1461,
                "contract": "contracts/NeemOSCapitalV2.sol:NeemOSCapitalV2",
                "label": "revocable",
                "offset": 0,
                "slot": "4",
                "type": "t_bool"
              }
            ],
            "numberOfBytes": "160"
          },
          "t_uint256": {
            "encoding": "inplace",
            "label": "uint256",
            "numberOfBytes": "32"
          }
        }
      }
    }
  }
}